S00F00004279676765726E2E7372656347
S11300000C94B4010C94D1010C94D1010C94D3013F
S11300100C94D1010C94D1010C94D1010C94D10114
S11300200C94D1010C94D1010C94D1010C94D10104
S11300300C94D1010C94D1010C94D1010C94D101F4
S11300400C94D1010C94D1010C94D1010C94DF01D6
S11300500C94D1010C94D1010C94D1010C94D101D4
S11300600C94D1010C94D1010C94D1010C94D101C4
S1130070000000000000000000065F5F06000000B2
S11300800007070007070000147F7F147F7F140018
S1130090242E6B6B3A120000466630180C66620020
S11300A0307A4F5D377A48000407030000000000EF
S11300B0001C3E63410000000041633E1C00000040
S11300C0082A3E1C1C3E2A0808083E3E0808000078
S11300D000A0E0600000000008080808080800000C
S11300E000006060000000006030180C060301008E
S11300F03E7F594D7F3E000042427F7F40400000DA
S1130100627359496F660000226349497F360000D3
S1130110181C16137F7F1000276745457D390000A2
S11301203C7E4B4979300000036371190F070000CE
S1130130367F49497F360000064F49693F1E00005B
S113014000006C6C0000000000A0EC6C00000000DB
S1130150081C366341000000141414141414000025
S1130160004163361C080000020351590F060000C9
S11301703E7F415D5D1F1E007C7E13137E7C00006C
S1130180417F7F49497F36001C3E63414163220021
S1130190417F7F41637F1C00417F7F495D41630054
S11301A0417F7F491D0103001C3E6341517372006E
S11301B07F7F08087F7F000000417F7F41000000AF
S11301C0307040417F3F0100417F7F081C7763000E
S11301D0417F7F41406070007F7F060C067F7F0077
S11301E07F7F060C187F7F001C3E6341633E1C002A
S11301F0417F7F49090F06001E3F21717F5E000089
S1130200417F7F19396F460026674D597B320000C4
S113021003417F7F410300007F7F40407F7F0000D8
S11302201F3F60603F1F00007F7F3018307F7F00DA
S113023063771C081C776300074F78784F0700002A
S11302406773594D47637100007F7F41410000008F
S11302500103060C183060000041417F7F0000005C
S1130260080C0603060C0800808080808080808053
S11302700000030704000000207454543C7840003C
S1130280413F7F44447C3800387C44446C2800005F
S1130290307848493F7F4000387C54545C18000053
S11302A0487E7F490302000098BCA4A4F87C0400A3
S11302B0417F7F08047C780000447D7D400000007D
S11302C040C484FD7D000000417F7F10386C4400F1
S11302D000417F7F400000007C7C0C180C7C78007F
S11302E07C7C04047C780000387C44447C38000026
S11302F084FCF8A4243C1800183C24A4F8FC8400D2
S1130300447C78441C180000485C54547424000055
S113031000043E7F442400003C7C40403C7C400080
S11303201C3C60603C1C00003C7C6030607C3C00F9
S1130330446C3810386C44009CBCA0A0FC7C0000C9
S11303404C64745C4C64000008083E774141000032
S113035000000077770000004141773E0808000064
S1130360020301030203010011241FBECFEFD4E0F6
S1130370DEBFCDBF11E0A0E0B1E0E6EBFEE002C0DD
S113038005900D92A832B107D9F721E0A8E2B1E0B7
S113039001C01D92A433B207E1F70E9407020C9436
S11303A059070C9400001F920F920FB60F9211245C
S11303B0109229010F900FBE0F901F9018951F9255
S11303C00F920FB60F9211242F933F934F935F9385
S11303D06F937F938F939F93AF93BF93EF93FF9309
S11303E081E0809328018CB10E94CA02FF91EF91B1
S11303F0BF91AF919F918F917F916F915F914F9139
S11304003F912F910F900FBE0F901F9018958FEF73
S11304108ABB8FE190E00E94BE0260ED72E08AEC3C
S113042092E00E94D40286E091E00E9433030E948D
S1130430B7020E9427020E94550283E00E947402C0
S113044080E40E948C0283E60E94A302FFCFE0E0D6
S1130450F0E18EEA808381EA80838AED808382E101
S1130460808388EC808388EA80838FE3808385EDB2
S1130470808380E8808381E8808380E5808389EDC0
S1130480808381E2808380E2808382E080838BEDBD
S1130490808380E380838DEA8083108284EA808372
S11304A086EA80838FEA80830895CF93DF9380EB7D
S11304B0A0E0B0E120E1E0E0F2E191E0980F8C935C
S11304C02C931C9280E01082C3ECD9E02197F1F7C1
S11304D000C000008F5F8038B1F7983B11F0892F7E
S11304E0ECCFDF91CF91089590EB980FE0E0F0E12D
S11304F0908390E19083108290E080559F4F9F936A
S11305008F9382E191E09F938F930E941F030F903A
S11305100F900F900F900895982F92959F70905F71
S1130520E0E0F0E19083982F9F7090831F928F9367
S11305308CE191E09F938F930E941F030F900F9083
S11305400F900F90089528E0829FC0011124FC01B0
S1130550E059F04020E030E0A0E0B2E184918C93D7
S11305602F5F3F4F319628303105C1F7089585B785
S1130570806885BF80B7806280BF089590BD89B9C7
S113058088E18AB95998F894579A5F9A789481E0E7
S113059090E008955D9BFECF8CB983E090E00895D0
S11305A05F9BFECF8CB108950F931F93CF93DF937E
S11305B0EC018B01009731F46115710519F480E0A9
S11305C090E038C06EE070E081E090E00E94320577
S11305D0FC010097A1F380E883830115110571F0F4
S11305E01387028781E8838380912A0190912B01EC
S11305F0892B21F4F0932B01E0932A012097C9F071
S1130600D187C08783818260838380912C019091FC
S11306102D01892B71F4F0932D01E0932C0180912D
S11306202E0190912F01892B21F4F0932F01E09357
S11306302E01CF01DF91CF911F910F910895A0E07A
S1130640B0E0E5E2F3E00C943207FE0135966191E7
S11306507191AF0180912C0190912D010E94600352
S1130660E2E00C944E070F931F93CF93DF93E09136
S11306702C01F0912D01238121FF1BC0EC0100E02E
S113068010E0899160912C0170912D01DB01189685
S1130690ED91FC911997882331F00995892B89F301
S11306A00FEF1FEFEECF8AE00995892B11F4C801F3
S11306B002C08FEF9FEFDF91CF911F910F910895AB
S11306C0ACE0B0E0E6E6F3E00C9422077C016B01B9
S11306D08A01FC0117821682838181FFBDC1CE018C
S11306E001964C01F7019381F60193FD859193FFE7
S11306F081916F01882309F4ABC1853239F493FDEC
S1130700859193FF81916F01853229F4B70190E0BF
S11307100E949206E7CF512C312C20E02032A0F425
S11307208B3269F030F4803259F0833269F42061FD
S11307302CC08D3239F0803339F4216026C0226018
S1130740246023C0286021C027FD27C030ED380F66
S11307503A3078F426FF06C0FAE05F9E300D11248B
S1130760532E13C08AE0389E300D1124332E20629C
S11307700CC08E3221F426FD6BC1206406C08C3679
S113078011F4206802C0883641F4F60193FD859186
S113079093FF81916F018111C1CF982F9F7D955453
S11307A0933028F40C5F1F4FFFE3F9830DC08336A9
S11307B031F0833771F0833509F05BC022C0F80152
S11307C0808189830E5F1F4F44244394512C54012C
S11307D015C03801F2E06F0E711CF801A080B180E1
S11307E026FF03C0652D70E002C06FEF7FEFC501E7
S11307F02C870E9487062C0183012C852F77222EBB
S113080017C03801F2E06F0E711CF801A080B180AE
S113081026FF03C0652D70E002C06FEF7FEFC501B6
S11308202C870E9475062C012C852068222E8301BA
S113083023FC1BC0832D90E048165906B0F4B70181
S113084080E290E00E9492063A94F4CFF50127FCEE
S1130850859127FE81915F01B70190E00E94920685
S113086031103A94F1E04F1A51084114510471F7D0
S1130870E5C0843611F0893639F5F80127FF07C041
S113088060817181828193810C5F1F4F08C06081F8
S11308907181882777FD8095982F0E5F1F4F2F76E3
S11308A0B22E97FF09C090958095709561957F4F02
S11308B08F4F9F4F2068B22E2AE030E0A4010E949F
S11308C0C406A82EA81844C0853729F42F7EB22E5A
S11308D02AE030E025C0F22FF97FBF2E8F36C1F019
S11308E018F4883579F0B4C0803719F0883721F0CE
S11308F0AFC02F2F2061B22EB4FE0DC08B2D8460AB
S1130900B82E09C024FF0AC09F2F9660B92E06C0D6
S113091028E030E005C020E130E002C020E132E010
S1130920F801B7FE07C060817181828193810C5FF9
S11309301F4F06C06081718180E090E00E5F1F4F01
S1130940A4010E94C406A82EA818FB2DFF77BF2E71
S1130950B6FE0BC02B2D2E7FA51450F4B4FE0AC096
S1130960B2FC08C02B2D2E7E05C07A2C2B2D03C083
S11309707A2C01C0752C24FF0DC0FE01EA0DF11D77
S11309808081803311F4297E09C022FF06C073944C
S1130990739404C0822F867809F0739423FD13C0E6
S11309A020FF06C05A2C731418F4530C5718732CD8
S11309B0731468F4B70180E290E02C870E949206D9
S11309C073942C85F5CF731410F4371801C0312CAF
S11309D024FF12C0B70180E390E02C870E949206A6
S11309E02C8522FF17C021FF03C088E590E002C0D8
S11309F088E790E0B7010CC0822F867859F021FD7A
S1130A0002C080E201C08BE227FD8DE2B70190E0D5
S1130A100E949206A51438F4B70180E390E00E9486
S1130A2092065A94F7CFAA94F401EA0DF11D80813D
S1130A30B70190E00E949206A110F5CF332009F48B
S1130A4051CEB70180E290E00E9492063A94F6CF2C
S1130A50F7018681978102C08FEF9FEF2C96E2E128
S1130A600C943E070F931F93CF93DF93869F8001CF
S1130A70879F100D969F100D1124C8010E944E05EA
S1130A80EC01009729F0A80160E070E00E94800664
S1130A90CE01DF91CF911F910F910895CF93DF93F2
S1130AA08230910510F482E090E0E0913201F091FF
S1130AB0330120E030E0A0E0B0E0309739F140812C
S1130AC0518148175907B8F04817590771F48281C2
S1130AD09381109729F013969C938E9312972CC0B0
S1130AE0909333018093320127C02115310531F0F1
S1130AF04217530718F0A901DB0101C0EF019A0165
S1130B00BD01DF010280F381E02DD7CF211531052E
S1130B10F9F0281B390B2430310580F48A819B813C
S1130B206115710521F0FB019383828304C09093C6
S1130B30330180933201FE01329644C0FE01E20F7C
S1130B40F31F8193919322503109398328833AC04A
S1130B502091300130913101232B41F42091020185
S1130B603091030130933101209330012091000131
S1130B70309101012115310541F42DB73EB7409163
S1130B80040150910501241B350BE0913001F091D3
S1130B903101E217F307A0F42E1B3F0B2817390786
S1130BA078F0AC014E5F5F4F2417350748F04E0FC5
S1130BB05F1F50933101409330018193919302C0A0
S1130BC0E0E0F0E0CF01DF91CF910895CF93DF9380
S1130BD0009709F487C0FC01329713821282C091F6
S1130BE03201D0913301209781F420813181280F83
S1130BF0391F80913001909131018217930779F563
S1130C00F0933101E09330016DC0DE0120E030E06B
S1130C10AE17BF0750F412964D915C9113979D0146
S1130C204115510509F1DA01F3CFB383A283408161
S1130C305181840F951F8A179B0771F48D919C91A4
S1130C401197840F951F02969183808312968D913C
S1130C509C911397938382832115310529F4F09392
S1130C603301E09332013EC0D9011396FC93EE9315
S1130C7012974D915D91A40FB51FEA17FB0779F404
S1130C8080819181840F951F0296D90111969C93BE
S1130C908E938281938113969C938E931297E0E0B6
S1130CA0F0E08A819B81009719F0FE01EC01F9CFF5
S1130CB0CE01029628813981820F931F2091300141
S1130CC0309131012817390769F4309729F41092CB
S1130CD033011092320102C013821282D093310187
S1130CE0C0933001DF91CF910895FC0105906150CC
S1130CF070400110D8F7809590958E0F9F1F08952E
S1130D00DC0101C06D9341505040E0F70895FC01AF
S1130D106150704001900110D8F7809590958E0F26
S1130D209F1F08950F931F93CF93DF93182F092FBD
S1130D30EB018B8181FD03C08FEF9FEF20C082FF09
S1130D4010C04E815F812C813D81421753077CF492
S1130D50E881F9819F012F5F3F4F398328831083F6
S1130D6006C0E885F985812F0995892B29F72E81FD
S1130D703F812F5F3F4F3F832E83812F902FDF9141
S1130D80CF911F910F910895FA01AA27283051F1AC
S1130D90203181F1E8946F936E7F6E5F7F4F8F4FA8
S1130DA09F4FAF4FB1E03ED0B4E03CD0670F781F07
S1130DB0891F9A1FA11D680F791F8A1F911DA11DEC
S1130DC06A0F711D811D911DA11D20D009F4689425
S1130DD03F912AE0269F11243019305D3193DEF6CD
S1130DE0CF010895462F4770405D4193B3E00FD083
S1130DF0C9F7F6CF462F4F70405D4A3318F0495D6E
S1130E0031FD4052419302D0A9F7EACFB4E0A69550
S1130E109795879577956795BA95C9F70097610572
S1130E20710508959B01AC010A2E069457954795C8
S1130E3037952795BA95C9F7620F731F841F951FBD
S1130E40A01D08952F923F924F925F926F927F92CE
S1130E508F929F92AF92BF92CF92DF92EF92FF92C6
S1130E600F931F93CF93DF93CDB7DEB7CA1BDB0B72
S1130E700FB6F894DEBF0FBECDBF09942A88398817
S1130E8048885F846E847D848C849B84AA84B9841E
S1130E90C884DF80EE80FD800C811B81AA81B9812A
S1130EA0CE0FD11D0FB6F894DEBF0FBECDBFED013E
S1090EB00895F894FFCF41
S1130EB600003401200048656C6C6F20776F726CFB
S1130EC664006C696E653A2025640A00636F6C756C
S10B0ED66D6E3A2025640A0048
S9030000FC
