S00F00004279676765726E2E7372656347
S11300000C9426010C9443010C9443010C944F016D
S11300100C9443010C9443010C9443010C9443014C
S11300200C9443010C9443010C9443010C9443013C
S11300300C9443010C9443010C9443010C9443012C
S11300400C9443010C9443010C9443010C9420023E
S11300500C9443010C9443010C9443010C9443010C
S11300600C9443010C9443010C9443010C944301FC
S1130070000000000000005F0000000700070014FB
S11300807F147F14242A7F2A1223130864623649BA
S11300905522500005030000001C224100004122AB
S11300A01C00082A1C2A0808083E080800503000D2
S11300B00008080808080060600000201008040216
S11300C03E5149453E00427F40004261514946212C
S11300D041454B311814127F1027454545393C4A98
S11300E049493001710905033649494936064949E8
S11300F0291E00363600000056360000000814227F
S11301004114141414144122140800020151090664
S1130110324979413E7E1111117E7F494949363E6B
S1130120414141227F4141221C7F494949417F0984
S11301300901013E414151327F0808087F00417F97
S113014041002040413F017F081422417F4040404C
S1130150407F0204027F7F0408107F3E4141413EFC
S11301607F090909063E4151215E7F091929464646
S11301704949493101017F01013F4040403F1F206F
S113018040201F7F2018207F631408146303047821
S11301900403615149454300007F414102040810B2
S11301A02041417F000004020102044040404040DD
S11301B0000102040020545454787F4844443838E1
S11301C044444420384444487F3854545418087EE6
S11301D0090102081454543C7F0804047800447D47
S11301E040002040443D00007F10284400417F40EF
S11301F0007C041804787C080404783844444438A7
S11302007C14141408081414187C7C08040408488A
S113021054545420043F4440203C4040207C1C2043
S113022040201C3C4030403C44281028440C505092
S1130230503C4464544C44000836410000007F00A4
S113024000004136080002010302010011241FBE10
S1130250CFEFD4E0DEBFCDBF11E0A0E0B1E0E4EF2A
S1130260F7E102C005900D92A83DB107D9F721E04E
S1130270A8EDB1E001C01D92AA3FB207E1F70E94C8
S113028048020C94F80B0C940000809300142899F5
S1130290FECF81E08093EF018091001408951F92B6
S11302A00F920FB60F9211241092EF010F900FBE10
S11302B00F901F901895CF93DF9385E00E9445011E
S11302C0682F70E080E090E00E944F062CE033E954
S11302D049E45FE30E94B3060E941C06C091D90161
S11302E0DD27C7FDD0956C0F7D1FEB01C456D109E6
S11302F084E00E944501682F70E080E090E00E9455
S11303004F062CE033E949E45FE30E94B3060E9400
S11303101C062091D801332727FD3095260F371F5F
S1130320BE01C90184569109DF91CF9108958F923E
S11303309F92AF92BF92CF92DF92EF92FF920F9370
S11303401F93CF93DF930E945B016B017C01EB0150
S11303508701CB01B7010E943E07882777FD80956E
S1130360982F0E944F064B015C01C60105960B971E
S113037020F4C70105960B9728F11C161D0634F4CA
S1130380C501B4010E9466070297F4F4DD2334F436
S1130390C501B4010E9466070297C4F41016110641
S11303A03CF4C501B4010E9466071816190684F4CA
S11303B011233CF4C501B4010E94660718161906FE
S11303C04CF409C084E007C081E005C080E003C0AC
S11303D082E001C083E0DF91CF911F910F91FF90E4
S11303E0EF90DF90CF90BF90AF909F908F90089543
S11303F00E9497018230A9F028F4882341F08130CB
S113040059F00895833091F08430A9F0089589E477
S113041091E00E94F90808958EE491E00E94F908A1
S1130420089584E591E00E94F908089587E591E034
S11304300E94F90808958CE591E00E94F908089556
S11304401F920F920FB60F9211242F933F934F9345
S11304505F936F937F938F939F93AF93BF93EF9328
S1130460FF9381E08093ED018CB10E941206FF910D
S1130470EF91BF91AF919F918F917F916F915F9118
S11304804F913F912F910F900FBE0F901F90189591
S1130490CF93DF93CDB7DEB729970FB6F894DEBFBD
S11304A00FBECDBF8FEF8ABB8FE190E00E9406069E
S11304B068E176E082E196E00E94930884E691E0A8
S11304C00E94F9080E94FF050E94EB040E94240583
S11304D080E00E94190580E00E943E0580E791E0DB
S11304E09093E5018093E4011092E8011092E701F2
S11304F01092E6011092EC011092EB018DE290E073
S11305000E946C0709EE11E0D8018D939C9389E059
S1130510E4EEF1E0ABEDB1E001900D928A95E1F7E4
S113052024EE31E043E060E070E08AE791E00E946D
S1130530340424EE31E043E060E070E083E891E0CD
S11305400E94340424EE31E043E060E070E089E886
S113055091E00E943404D801ED91FC91E480F5808F
S11305602281338143E060E070E08EE891E00E94F4
S11305703404970143E060E070E08BE991E00E946D
S11305803404E091E901F091EA010190F081E02D59
S113059081818F9380818F938FE991E09F938F93D3
S11305A00E94DE08EE24E3940091E4011091E50139
S11305B02091E6013091E7014091E8015091E90171
S11305C06091EA017091EB018091EC010E94D303E8
S11305D00F900F900F900F900F2EF4EBCF2EF1E0B1
S11305E0DF2EF02D0F2EF9E0FF2EF02D0F2EF2EE60
S11305F08F2EF1E09F2EF02D0F2EFFEDAF2EF1E0A8
S1130600BF2EF02D0E949701182FDF92CF920E94E7
S1130610DE080E94F8018AE090E00E94F208E0906F
S1130620DA01EE2DF0E0EE0FFF1F2091E001309192
S1130630E101E20FF31F0190F081E02DDE0111963C
S11306408F2D01900D928A95E1F70F900F90113044
S113065009F44EC008F47EC0123019F0133009F1C9
S1130660D1CFEE20B9F0EA94E092DA010091DB01F7
S11306701091DC012091DD013091DE014091DF0118
S11306805091E0016091E1017091E2018091E301F8
S11306900E94D303E7EAF1E63197F1F700C00000C6
S11306A0B1CF2E2D30E0D5018C9190E00197281721
S11306B03907BCF4E394E092DA010091DB01109174
S11306C0DC012091DD013091DE014091DF01509188
S11306D0E0016091E1017091E2018091E3010E94E7
S11306E0D303E7EAF1E63197F1F700C000008ACFBF
S11306F009811A812B813C814D815E816F817885CE
S113070089850E946F04FE013196ABEDB1E08F2D17
S113071001900D928A95E1F71092DA01E12C009193
S1130720DB011091DC012091DD013091DE0140916B
S1130730DF015091E0016091E1017091E20180914B
S1130740E3010E94D30387EA91E60197F1F700C021
S1130750000058CF0091DB011091DC012091DD01F4
S11307603091DE014091DF015091E0016091E1019F
S11307707091E2018091E3010E94AC04D401ED91F7
S1130780FC91309739F0ABEDB1E08F2D01900D92D3
S11307908A95E1F71092DA01E7EAF1E63197F1F789
S11307A000C000002FCFCF92DF92EF92FF920F9301
S11307B01F93CF93DF93CDB7DEB729970FB6F89485
S11307C0DEBF0FBECDBF09831A832B833C83D42E97
S11307D04D835E836F8378878987C52EF62E0E94AA
S11307E0240589819A810E94860581E00E94190569
S11307F0DD20F1F00C2D1F2DD394FF24F394FE1073
S113080008C0D801ED91FC91808191810E94BE05C0
S113081007C0D801ED91FC91808191810E948605E9
S1130820F3948F2D0E9419050E5F1F4FFD10E7CF23
S113083088859985892B29F48AEB91E00E948605A5
S113084004C08FEB91E00E94860529960FB6F894B8
S1130850DEBF0FBECDBFDF91CF911F910F91FF90EF
S1130860EF90DF90CF900895BF92CF92DF92EF92F6
S1130870FF920F931F93CF93DF936C017B01B42EF0
S1130880E9010C8110E0000F111F8D819E81080F7A
S1130890191F89E090E00E946C07F801918380831E
S11308A0EC81F0E0EE0FFF1F8D819E81E80FF91FB0
S11308B00190F081E02DD182C082B482F382E28281
S11308C0D087C7838C818F5F8C83DF91CF911F91F9
S11308D00F91FF90EF90DF90CF90BF900895EF922B
S11308E00F931F93CF93DF93CDB7DEB729970FB63E
S11308F0F894DEBF0FBECDBF09831A832B833C83DC
S11309004D835E836F8378878987EB81FC812FE336
S11309108DE093E0215080409040E1F700C000005A
S1130920309769F4E12C09811A812B813C814D8136
S11309305E816F81788589850E94D30301C0099502
S113094029960FB6F894DEBF0FBECDBFDF91CF91CD
S11309501F910F91EF900895EF920F931F93CF93F0
S1130960DF93CDB7DEB729970FB6F894DEBF0FBE7D
S1130970CDBF09831A832B833C834D835E836F83AE
S113098078878987E885F985309769F0E12C0081BB
S113099011812281338144815581668177818085EB
S11309A00E94D3030CC00E94240584E00E94190510
S11309B089E10E943E0584EC91E00E948605299617
S11309C00FB6F894DEBF0FBECDBFDF91CF911F915C
S11309D00F91EF900895E0E0F0E18EEA808381EAE0
S11309E080838AED808382E1808388EC808388EA37
S11309F080838FE3808385ED808380E8808381E832
S1130A00808380E5808389ED808381E2808380E236
S1130A10808382E080838BED808380E380838DEA12
S1130A208083108284EA808386EA80838FEA8083CD
S1130A30089590EB980FE0E0F0E1908390E19083CB
S1130A4010828093EE01089580EBA0E0B0E120E1F4
S1130A50E0E0F2E191E0980F8C932C931C9280E0FB
S1130A6010828F5F8038E1F7983B11F0892FF2CF25
S1130A701092EE0180E00E9419050895982F929536
S1130A809F70905FE0E0F0E19083982F9F709083D7
S1130A901F928F938CEC91E09F938F930E94DE08BA
S1130AA00F900F900F900F900895E82FF0E0B097FB
S1130AB0CF01880F991F880F991FE80FF91FE0597C
S1130AC0FF4F80E090E0A0E0B2E124912C930196E6
S1130AD0319685309105C9F70895E82FF0E0B09775
S1130AE0CF01880F991F880F991FE80FF91FE0594C
S1130AF0FF4F80E090E0A0E0B2E1249120952C9398
S1130B000196319685309105C1F70895FF920F93B0
S1130B101F93CF93DF93EC01FC0101900020E9F7D0
S1130B203197E81BF90BCF01880F991F880F991F84
S1130B30E80FF91FF695E79580E48E1B0E943E05A9
S1130B4010E000E0F12C0EC01F5F0F5F0E945505FE
S1130B50193140F08091EE018F5F8093EE010E9485
S1130B6019051F2DFE01E00FF11D80818111ECCFCD
S1130B70DF91CF911F910F91FF900895FF920F93F2
S1130B801F93CF93DF93EC0180E0E0E0F2E19FEF6D
S1130B9090838F5F8038E1F7FE0101900020E9F730
S1130BA03197EC1BFD0B9F01220F331F220F331FC4
S1130BB0E20FF31F9F013695279580E4821B0E9464
S1130BC03E0510E000E0F12C0EC01F5F0F5F0E9495
S1130BD06D05193140F08091EE018F5F8093EE0135
S1130BE00E9419051F2DFE01E00FF11D8081811166
S1130BF0ECCFDF91CF911F910F91FF90089585B7AE
S1130C00806885BF80B7806280BF089590BD89B930
S1130C1088E18AB95998F894579A5F9A789481E050
S1130C2090E008955D9BFECF8CB983E090E0089539
S1130C305F9BFECF8CB1089504D06894B1118DC030
S1130C40089570D088F09F5790F0B92F9927B75125
S1130C50A0F0D1F0660F771F881F991F1AF0BA957C
S1130C60C9F712C0B13081F077D0B1E0089574C0F3
S1130C70672F782F8827B85F39F0B93FCCF3869572
S1130C8077956795B395D9F73EF4909580957095CF
S1130C9061957F4F8F4F9F4F0895E89409C097FB4C
S1130CA03EF490958095709561957F4F8F4F9F4F3F
S1130CB09923A9F0F92F96E9BB279395F695879583
S1130CC077956795B795F111F8CFFAF4BB0F11F446
S1130CD060FF1BC06F5F7F4F8F4F9F4F16C08823ED
S1130CE011F096E911C0772321F09EE8872F762F23
S1130CF005C0662371F096E8862F70E060E02AF064
S1130D009A95660F771F881FDAF7880F969587954F
S1130D1097F9089557FD9058440F551F59F05F3FB8
S1130D2071F04795880F97FB991F61F09F3F79F009
S1130D3087950895121613061406551FF2CF46958B
S1130D40F1DF08C0161617061806991FF1CF86950D
S1130D507105610508940895E894BB2766277727F1
S1130D60CB0197F908950BD078C069D028F06ED0E4
S1130D7018F0952309F05AC05FC01124EECFCADFE2
S1130D80A0F3959FD1F3950F50E0551F629FF0019A
S1130D90729FBB27F00DB11D639FAA27F00DB11DF3
S1130DA0AA1F649F6627B00DA11D661F829F22277C
S1130DB0B00DA11D621F739FB00DA11D621F839F03
S1130DC0A00D611D221F749F3327A00D611D231FD9
S1130DD0849F600D211D822F762F6A2F11249F5727
S1130DE050408AF0E1F088234AF0EE0FFF1FBB1F4A
S1130DF0661F771F881F91505040A9F79E3F5105E9
S1130E0070F014C0AACF5F3FECF3983EDCF38695F4
S1130E1077956795B795F795E7959F5FC1F7FE2B93
S1130E20880F911D9695879597F9089597F99F676F
S1130E3080E870E060E008959FEF80EC089500245E
S1130E400A941616170618060906089500240A942B
S1130E5012161306140605060895092E0394000CB1
S1130E6011F4882352F0BB0F40F4BF2B11F460FF40
S1130E7004C06F5F7F4F8F4F9F4F089597FB072EDE
S1130E8016F4009407D077FD09D00E94520707FC9E
S1130E9005D03EF4909581959F4F08957095619586
S1130EA07F4F0895AA1BBB1B51E107C0AA1FBB1F9C
S1130EB0A617B70710F0A61BB70B881F991F5A95E2
S1130EC0A9F780959095BC01CD01089597FF03C0C3
S1130ED09195819591090895CF93DF93823091057F
S1130EE010F482E090E0E091F201F091F30120E04F
S1130EF030E0A0E0B0E0309739F1408151814817EB
S1130F005907B8F04817590771F4828193811097F3
S1130F1029F013969C938E9312972CC09093F3010F
S1130F208093F20127C02115310531F04217530790
S1130F3018F0A901DB0101C0EF019A01BD01DF0135
S1130F400280F381E02DD7CF21153105F9F0281B5C
S1130F50390B2430310580F48A819B816115710538
S1130F6021F0FB019383828304C09093F301809367
S1130F70F201FE01329644C0FE01E20FF31F819399
S1130F80919322503109398328833AC02091F0018A
S1130F903091F101232B41F420910201309103019E
S1130FA03093F1012093F00120910001309101016F
S1130FB02115310541F42DB73EB7409104015091FC
S1130FC00501241B350BE091F001F091F101E217CA
S1130FD0F307A0F42E1B3F0B2817390778F0AC0158
S1130FE04E5F5F4F2417350748F04E0F5F1F509335
S1130FF0F1014093F0018193919302C0E0E0F0E0AD
S1131000CF01DF91CF910895CF93DF93009709F437
S113101087C0FC01329713821282C091F201D091F1
S1131020F301209781F420813181280F391F8091A9
S1131030F0019091F1018217930779F5F093F10192
S1131040E093F0016DC0DE0120E030E0AE17BF0791
S113105050F412964D915C9113979D0141155105E1
S113106009F1DA01F3CFB383A28340815181840F64
S1131070951F8A179B0771F48D919C911197840F8A
S1131080951F02969183808312968D919C9113975C
S1131090938382832115310529F4F093F301E093BE
S11310A0F2013EC0D9011396FC93EE9312974D9131
S11310B05D91A40FB51FEA17FB0779F48081918134
S11310C0840F951F0296D90111969C938E93828169
S11310D0938113969C938E931297E0E0F0E08A81BB
S11310E09B81009719F0FE01EC01F9CFCE01029625
S11310F028813981820F931F2091F0013091F101F1
S11311002817390769F4309729F41092F3011092E3
S1131110F20102C013821282D093F101C093F00154
S1131120DF91CF9108950F931F93CF93DF93EC0139
S11311308B01009731F46115710519F480E090E09A
S113114038C06EE070E081E090E00E94F80AFC0193
S11311500097A1F380E883830115110571F01387CB
S1131160028781E883838091F4019091F501892BB2
S113117021F4F093F501E093F4012097C9F0D187AD
S1131180C0878381826083838091F6019091F70107
S1131190892B71F4F093F701E093F6018091F80143
S11311A09091F901892B21F4F093F901E093F8016E
S11311B0CF01DF91CF911F910F910895A0E0B0E08E
S11311C0E4EEF8E00C94D10BFE0135966191719137
S11311D0AF018091F6019091F7010E942609E2E0A7
S11311E00C94ED0B6091F6017091F7010E94310BA4
S11311F008950F931F93CF93DF93E091F601F0913D
S1131200F701238121FF1BC0EC0100E010E089916C
S11312106091F6017091F701DB011896ED91FC9154
S11312201997882331F00995892B89F30FEF1FEF64
S1131230EECF8AE00995892B11F4C80102C08FEF23
S11312409FEFDF91CF911F910F910895ACE0B0E033
S1131250ECE2F9E00C94C10B7C016B018A01FC0106
S113126017821682838181FFBDC1CE0101964C0194
S1131270F7019381F60193FD859193FF81916F01AD
S1131280882309F4ABC1853239F493FD859193FF2A
S113129081916F01853229F4B70190E00E94310BEE
S11312A0E7CF512C312C20E02032A0F48B3269F0AE
S11312B030F4803259F0833269F420612CC08D32CD
S11312C039F0803339F4216026C02260246023C0C1
S11312D0286021C027FD27C030ED380F3A3078F45C
S11312E026FF06C0FAE05F9E300D1124532E13C072
S11312F08AE0389E300D1124332E20620CC08E32C9
S113130021F426FD6BC1206406C08C3611F42068DC
S113131002C0883641F4F60193FD859193FF8191D3
S11313206F018111C1CF982F9F7D9554933028F47C
S11313300C5F1F4FFFE3F9830DC0833631F0833711
S113134071F0833509F05BC022C0F8018081898384
S11313500E5F1F4F44244394512C540115C038018F
S1131360F2E06F0E711CF801A080B18026FF03C06B
S1131370652D70E002C06FEF7FEFC5012C870E94DE
S1131380260B2C0183012C852F77222E17C03801C0
S1131390F2E06F0E711CF801A080B18026FF03C03B
S11313A0652D70E002C06FEF7FEFC5012C870E94AE
S11313B0140B2C012C852068222E830123FC1BC0D6
S11313C0832D90E048165906B0F4B70180E290E00E
S11313D00E94310B3A94F4CFF50127FC859127FE46
S11313E081915F01B70190E00E94310B31103A9472
S11313F0F1E04F1A51084114510471F7E5C08436E5
S113140011F0893639F5F80127FF07C06081718131
S1131410828193810C5F1F4F08C06081718188278E
S113142077FD8095982F0E5F1F4F2F76B22E97FF72
S113143009C090958095709561957F4F8F4F9F4F10
S11314402068B22E2AE030E0A4010E94630BA82E8B
S1131450A81844C0853729F42F7EB22E2AE030E044
S113146025C0F22FF97FBF2E8F36C1F018F48835CE
S113147079F0B4C0803719F0883721F0AFC02F2F2E
S11314802061B22EB4FE0DC08B2D8460B82E09C02D
S113149024FF0AC09F2F9660B92E06C028E030E0D2
S11314A005C020E130E002C020E132E0F801B7FEDF
S11314B007C060817181828193810C5F1F4F06C0D8
S11314C06081718180E090E00E5F1F4FA4010E9453
S11314D0630BA82EA818FB2DFF77BF2EB6FE0BC0FA
S11314E02B2D2E7FA51450F4B4FE0AC0B2FC08C004
S11314F02B2D2E7E05C07A2C2B2D03C07A2C01C0F7
S1131500752C24FF0DC0FE01EA0DF11D808180338E
S113151011F4297E09C022FF06C07394739404C099
S1131520822F867809F0739423FD13C020FF06C030
S11315305A2C731418F4530C5718732C731468F43E
S1131540B70180E290E02C870E94310B73942C85C4
S1131550F5CF731410F4371801C0312C24FF12C0D6
S1131560B70180E390E02C870E94310B2C8522FF89
S113157017C021FF03C088E590E002C088E790E02F
S1131580B7010CC0822F867859F021FD02C080E299
S113159001C08BE227FD8DE2B70190E00E94310B80
S11315A0A51438F4B70180E390E00E94310B5A94FB
S11315B0F7CFAA94F401EA0DF11D8081B70190E000
S11315C00E94310BA110F5CF332009F451CEB7019D
S11315D080E290E00E94310B3A94F6CFF7018681C5
S11315E0978102C08FEF9FEF2C96E2E10C94DD0B04
S11315F00F931F93CF93DF93869F8001879F100DD6
S1131600969F100D1124C8010E946C07EC010097ED
S113161029F0A80160E070E00E941F0BCE01DF9169
S1131620CF911F910F910895FC0105906150704076
S11316300110D8F7809590958E0F9F1F0895DC01B7
S113164001C06D9341505040E0F70895FC01615092
S1131650704001900110D8F7809590958E0F9F1FD0
S113166008950F931F93CF93DF93182F092FEB0146
S11316708B8181FD03C08FEF9FEF20C082FF10C0DC
S11316804E815F812C813D81421753077CF4E881B0
S1131690F9819F012F5F3F4F39832883108306C050
S11316A0E885F985812F0995892B29F72E813F81BA
S11316B02F5F3F4F3F832E83812F902FDF91CF9158
S11316C01F910F910895FA01AA27283051F1203172
S11316D081F1E8946F936E7F6E5F7F4F8F4F9F4FC2
S11316E0AF4FB1E03ED0B4E03CD0670F781F891F04
S11316F09A1FA11D680F791F8A1F911DA11D6A0FD2
S1131700711D811D911DA11D20D009F468943F9184
S11317102AE0269F11243019305D3193DEF6CF0183
S11317200895462F4770405D4193B3E00FD0C9F749
S1131730F6CF462F4F70405D4A3318F0495D31FDB6
S11317404052419302D0A9F7EACFB4E0A695979509
S1131750879577956795BA95C9F7009761057105DF
S113176008959B01AC010A2E069457954795379529
S11317702795BA95C9F7620F731F841F951FA01D83
S113178008952F923F924F925F926F927F928F9221
S11317909F92AF92BF92CF92DF92EF92FF920F93FC
S11317A01F93CF93DF93CDB7DEB7CA1BDB0B0FB606
S11317B0F894DEBF0FBECDBF09942A8839884888C3
S11317C05F846E847D848C849B84AA84B984C88459
S11317D0DF80EE80FD800C811B81AA81B981CE0F50
S11317E0D11D0FB6F894DEBF0FBECDBFED01089535
S10717F0F894FFCF97
S11317F40000FA01200043616C6962726174696ECD
S1131804672E2E2E20446F206E6F7420746F7563C0
S11318146820746865206A6F79737469636B006304
S11318246F72725F78203D2025640A00636F7272C0
S11318345F79203D2025640A004C454654005249F2
S113184447485400555000444F574E004E45555494
S113185452414C0048656C6C6F20776F726C640065
S11318644D61696E204D656E750053657474696EBF
S1131874677300546F6E6A61004B61726C004C496B
S11318844C4C412047454E534552004B554C006641
S113189469727374207375626D656E752069732043
S11318A425730A006469723A200051554954004270
S11318B441434B005120552049205400636F6C75FB
S10B18C46D6E3A2025640A0050
S9030000FC
