:100000000C9426010C9443010C9443010C945E0162
:100010000C9443010C9443010C9443010C94430150
:100020000C9443010C9443010C9443010C94430140
:100030000C9443010C9443010C9443010C94430130
:100040000C9443010C9443010C9443010C94B101B2
:100050000C9443010C9443010C9443010C94430110
:100060000C9443010C9443010C9443010C94430100
:10007000000000000000005F0000000700070014FF
:100080007F147F14242A7F2A1223130864623649BE
:100090005522500005030000001C224100004122AF
:1000A0001C00082A1C2A0808083E080800503000D6
:1000B000000808080808006060000020100804021A
:1000C0003E5149453E00427F400042615149462130
:1000D00041454B311814127F1027454545393C4A9C
:1000E00049493001710905033649494936064949EC
:1000F000291E003636000000563600000008142283
:100100004114141414144122140800020151090668
:10011000324979413E7E1111117E7F494949363E6F
:10012000414141227F4141221C7F494949417F0988
:100130000901013E414151327F0808087F00417F9B
:1001400041002040413F017F081422417F40404050
:10015000407F0204027F7F0408107F3E4141413E00
:100160007F090909063E4151215E7F09192946464A
:100170004949493101017F01013F4040403F1F2073
:1001800040201F7F2018207F631408146303047825
:100190000403615149454300007F414102040810B6
:1001A0002041417F000004020102044040404040E1
:1001B000000102040020545454787F4844443838E5
:1001C00044444420384444487F3854545418087EEA
:1001D000090102081454543C7F0804047800447D4B
:1001E00040002040443D00007F10284400417F40F3
:1001F000007C041804787C080404783844444438AB
:100200007C14141408081414187C7C08040408488E
:1002100054545420043F4440203C4040207C1C2047
:1002200040201C3C4030403C44281028440C505096
:10023000503C4464544C44000836410000007F00A8
:1002400000004136080002010302010011241FBE14
:10025000CFEFD4E0DEBFCDBF11E0A0E0B1E0ECE332
:10026000F1E102C005900D92AE3CB107D9F721E053
:10027000AEECB1E001C01D92A63EB207E1F70E94CC
:10028000D9010C949C080C94000085B7806885BF48
:1002900080B7806280BF309886B78E7F86BF8BB76D
:1002A00080628BBF78940895809300142899FECFC4
:1002B00081E08093DB018091001408951F920F92DA
:1002C0000FB60F9211241092DB010F900FBE0F900A
:1002D0001F901895CF9386E091E00E949D052FE72F
:1002E00084E89EE1215080409040E1F700C000008A
:1002F00085E00E945401C1E82C2F281B2093CF01D8
:1003000084E00E945401C81BC093CE012091CF010C
:10031000822F992787FD90959F932F938FE291E0ED
:100320009F938F930E9489052091CE01822F992758
:1003300087FD90959F932F938CE391E09F938F93EC
:100340000E9489058DB79EB708960FB6F8949EBF98
:100350000FBE8DBFCF9108950E9445010E946A0192
:1003600008951F920F920FB60F9211242F933F936F
:100370004F935F936F937F938F939F93AF93BF93AD
:10038000EF93FF9381E08093D9018CB10E940D041B
:10039000FF91EF91BF91AF919F918F917F916F915D
:1003A0005F914F913F912F910F900FBE0F901F9033
:1003B00018958FEF8ABB8FE190E00E94010463E102
:1003C00074E08DE094E00E943E0584E691E00E9496
:1003D0009D050E94FA030E94E0020E94190380E03A
:1003E0000E940E0380E00E94330380E791E0909327
:1003F000D1018093D0011092D4011092D3011092B8
:10040000D2011092D8011092D7018DE290E00E94A3
:1004100017049093D6018093D50120ED31E043E09D
:1004200060E070E08AE791E00E94A502E091D501CA
:10043000F091D6010190F081E02D81818F93808130
:100440008F9383E891E09F938F930E948905EE2418
:10045000E3940091D0011091D1012091D20130910B
:10046000D3014091D4015091D5016091D601709192
:10047000D7018091D8010E9444020E94AC010F90E4
:100480000F900F900F90FFCFCF92DF92EF92FF92DD
:100490000F931F93CF93DF93CDB7DEB729970FB696
:1004A000F894DEBF0FBECDBF09831A832B833C8334
:1004B000D42E4D835E836F8378878987C52EF62E71
:1004C0000E94190389819A810E947B0381E00E9426
:1004D0000E03DD20F1F00C2D1F2DD394FF24F39497
:1004E000FE1008C0D801ED91FC91808191810E949D
:1004F000B30307C0D801ED91FC91808191810E94E6
:100500007B03F3948F2D0E940E030E5F1F4FFD108F
:10051000E7CF88859985892B29F488E991E00E94A5
:100520007B0304C08DE991E00E947B0329960FB6FE
:10053000F894DEBF0FBECDBFDF91CF911F910F9119
:10054000FF90EF90DF90CF900895BF92CF92DF920F
:10055000EF92FF920F931F93CF93DF936C017B0178
:10056000B42EE9010C8110E0000F111F8D819E81D6
:10057000080F191F89E090E00E941704F801918389
:100580008083EC81F0E0EE0FFF1F8D819E81E80FEC
:10059000F91F0190F081E02DD182C082B482F382F4
:1005A000E282D087C7838C818F5F8C83DF91CF916C
:1005B0001F910F91FF90EF90DF90CF90BF90089523
:1005C000E0E0F0E18EEA808381EA80838AED808337
:1005D00082E1808388EC808388EA80838FE3808354
:1005E00085ED808380E8808381E8808380E5808357
:1005F00089ED808381E2808380E2808382E0808352
:100600008BED808380E380838DEA8083108284EA8F
:10061000808386EA80838FEA8083089590EB980F29
:10062000E0E0F0E1908390E1908310828093DA0122
:10063000089580EBA0E0B0E120E1E0E0F2E191E09C
:10064000980F8C932C931C9280E010828F5F8038DF
:10065000E1F7983B11F0892FF2CF1092DA0180E098
:100660000E940E030895982F92959F70905FE0E08E
:10067000F0E19083982F9F7090831F928F9381EC6D
:1006800091E09F938F930E9489050F900F900F9098
:100690000F900895E82FF0E0B097CF01880F991FD1
:1006A000880F991FE80FF91FE059FF4F80E090E095
:1006B000A0E0B2E124912C9301963196853091050A
:1006C000C9F70895E82FF0E0B097CF01880F991F80
:1006D000880F991FE80FF91FE059FF4F80E090E065
:1006E000A0E0B2E1249120952C93019631968530BB
:1006F0009105C1F70895FF920F931F93CF93DF9356
:10070000EC01FC0101900020E9F73197E81BF90B9F
:10071000CF01880F991F880F991FE80FF91FF695D1
:10072000E79580E48E1B0E94330310E000E0F12C7B
:100730000EC01F5F0F5F0E944A03193140F0809185
:10074000DA018F5F8093DA010E940E031F2DFE01F4
:10075000E00FF11D80818111ECCFDF91CF911F91CE
:100760000F91FF900895FF920F931F93CF93DF9304
:10077000EC0180E0E0E0F2E19FEF9083A3ECB9E0D0
:100780001197F1F700C000008F5F8038B1F7FE01CC
:1007900001900020E9F73197EC1BFD0B9F01220F20
:1007A000331F220F331FE20FF31F9F01369527954A
:1007B00080E4821B0E94330310E000E0F12C0EC0A5
:1007C0001F5F0F5F0E946203193140F08091DA01D0
:1007D0008F5F8093DA010E940E031F2DFE01E00F50
:1007E000F11D80818111ECCFDF91CF911F910F918D
:1007F000FF90089585B7806885BF80B7806280BF0D
:10080000089590BD89B988E18AB95998F894579AA2
:100810005F9A789481E090E008955D9BFECF8CB95B
:1008200083E090E008955F9BFECF8CB10895CF9355
:10083000DF938230910510F482E090E0E091DE01D8
:10084000F091DF0120E030E0A0E0B0E0309739F136
:100850004081518148175907B8F04817590771F47A
:1008600082819381109729F013969C938E9312970F
:100870002CC09093DF018093DE0127C02115310544
:1008800031F04217530718F0A901DB0101C0EF0155
:100890009A01BD01DF010280F381E02DD7CF211540
:1008A0003105F9F0281B390B2430310580F48A8199
:1008B0009B816115710521F0FB019383828304C044
:1008C0009093DF018093DE01FE01329644C0FE0169
:1008D000E20FF31F819391932250310939832883CA
:1008E0003AC02091DC013091DD01232B41F42091AD
:1008F0000201309103013093DD012093DC0120914E
:100900000001309101012115310541F42DB73EB7A9
:100910004091040150910501241B350BE091DC014D
:10092000F091DD01E217F307A0F42E1B3F0B28170F
:10093000390778F0AC014E5F5F4F2417350748F058
:100940004E0F5F1F5093DD014093DC018193919323
:1009500002C0E0E0F0E0CF01DF91CF910895CF93A6
:10096000DF93009709F487C0FC013297138212824B
:10097000C091DE01D091DF01209781F42081318187
:10098000280F391F8091DC019091DD0182179307B8
:1009900079F5F093DD01E093DC016DC0DE0120E02C
:1009A00030E0AE17BF0750F412964D915C9113974B
:1009B0009D014115510509F1DA01F3CFB383A283FB
:1009C00040815181840F951F8A179B0771F48D9187
:1009D0009C911197840F951F0296918380831296A4
:1009E0008D919C911397938382832115310529F46E
:1009F000F093DF01E093DE013EC0D9011396FC9332
:100A0000EE9312974D915D91A40FB51FEA17FB0766
:100A100079F480819181840F951F0296D9011196F6
:100A20009C938E938281938113969C938E931297BD
:100A3000E0E0F0E08A819B81009719F0FE01EC0173
:100A4000F9CFCE01029628813981820F931F209120
:100A5000DC013091DD012817390769F4309729F45A
:100A60001092DF011092DE0102C013821282D09335
:100A7000DD01C093DC01DF91CF9108950F931F93A7
:100A8000CF93DF93EC018B01009731F46115710571
:100A900019F480E090E038C06EE070E081E090E012
:100AA0000E949C07FC010097A1F380E88383011555
:100AB000110571F01387028781E883838091E0013B
:100AC0009091E101892B21F4F093E101E093E001A1
:100AD0002097C9F0D187C08783818260838380910A
:100AE000E2019091E301892B71F4F093E301E0932B
:100AF000E2018091E4019091E501892B21F4F093CA
:100B0000E501E093E401CF01DF91CF911F910F91B7
:100B10000895A0E0B0E0EFE8F5E00C947508FE0160
:100B2000359661917191AF018091E2019091E3015D
:100B30000E94CA05E2E00C9491080F931F93CF9393
:100B4000DF93E091E201F091E301238121FF1BC0DB
:100B5000EC0100E010E089916091E2017091E30105
:100B6000DB011896ED91FC911997882331F00995D6
:100B7000892B89F30FEF1FEFEECF8AE00995892BC0
:100B800011F4C80102C08FEF9FEFDF91CF911F9149
:100B90000F910895ACE0B0E0E0EDF5E00C9465084D
:100BA0007C016B018A01FC0117821682838181FF1F
:100BB000BDC1CE0101964C01F7019381F60193FD71
:100BC000859193FF81916F01882309F4ABC1853230
:100BD00039F493FD859193FF81916F01853229F45A
:100BE000B70190E00E94D507E7CF512C312C20E0CF
:100BF0002032A0F48B3269F030F4803259F0833225
:100C000069F420612CC08D3239F0803339F42160D1
:100C100026C02260246023C0286021C027FD27C091
:100C200030ED380F3A3078F426FF06C0FAE05F9EC8
:100C3000300D1124532E13C08AE0389E300D11243C
:100C4000332E20620CC08E3221F426FD6BC120644D
:100C500006C08C3611F4206802C0883641F4F601D3
:100C600093FD859193FF81916F018111C1CF982FE1
:100C70009F7D9554933028F40C5F1F4FFFE3F98359
:100C80000DC0833631F0833771F0833509F05BC0D6
:100C900022C0F801808189830E5F1F4F4424439452
:100CA000512C540115C03801F2E06F0E711CF8018F
:100CB000A080B18026FF03C0652D70E002C06FEFF9
:100CC0007FEFC5012C870E94CA072C0183012C8568
:100CD0002F77222E17C03801F2E06F0E711CF80139
:100CE000A080B18026FF03C0652D70E002C06FEFC9
:100CF0007FEFC5012C870E94B8072C012C85206846
:100D0000222E830123FC1BC0832D90E04816590638
:100D1000B0F4B70180E290E00E94D5073A94F4CF96
:100D2000F50127FC859127FE81915F01B70190E0D5
:100D30000E94D50731103A94F1E04F1A510841143E
:100D4000510471F7E5C0843611F0893639F5F801A0
:100D500027FF07C060817181828193810C5F1F4FE3
:100D600008C060817181882777FD8095982F0E5F7C
:100D70001F4F2F76B22E97FF09C0909580957095E2
:100D800061957F4F8F4F9F4F2068B22E2AE030E051
:100D9000A4010E940708A82EA81844C0853729F48A
:100DA0002F7EB22E2AE030E025C0F22FF97FBF2E31
:100DB0008F36C1F018F4883579F0B4C0803719F057
:100DC000883721F0AFC02F2F2061B22EB4FE0DC0A6
:100DD0008B2D8460B82E09C024FF0AC09F2F966017
:100DE000B92E06C028E030E005C020E130E002C0A6
:100DF00020E132E0F801B7FE07C060817181828195
:100E000093810C5F1F4F06C06081718180E090E08C
:100E10000E5F1F4FA4010E940708A82EA818FB2DE3
:100E2000FF77BF2EB6FE0BC02B2D2E7FA51450F4DE
:100E3000B4FE0AC0B2FC08C02B2D2E7E05C07A2C51
:100E40002B2D03C07A2C01C0752C24FF0DC0FE0190
:100E5000EA0DF11D8081803311F4297E09C022FF43
:100E600006C07394739404C0822F867809F073943B
:100E700023FD13C020FF06C05A2C731418F4530C22
:100E80005718732C731468F4B70180E290E02C8734
:100E90000E94D50773942C85F5CF731410F437187E
:100EA00001C0312C24FF12C0B70180E390E02C87F1
:100EB0000E94D5072C8522FF17C021FF03C088E5BB
:100EC00090E002C088E790E0B7010CC0822F8678DE
:100ED00059F021FD02C080E201C08BE227FD8DE2C6
:100EE000B70190E00E94D507A51438F4B70180E35C
:100EF00090E00E94D5075A94F7CFAA94F401EA0D26
:100F0000F11D8081B70190E00E94D507A110F5CFB7
:100F1000332009F451CEB70180E290E00E94D5075A
:100F20003A94F6CFF7018681978102C08FEF9FEF49
:100F30002C96E2E10C9481080F931F93CF93DF93DB
:100F4000869F8001879F100D969F100D1124C80168
:100F50000E941704EC01009729F0A80160E070E0FE
:100F60000E94C307CE01DF91CF911F910F91089589
:100F7000FC010590615070400110D8F78095909564
:100F80008E0F9F1F0895DC0101C06D9341505040AA
:100F9000E0F70895FC016150704001900110D8F70E
:100FA000809590958E0F9F1F08950F931F93CF9359
:100FB000DF93182F092FEB018B8181FD03C08FEF89
:100FC0009FEF20C082FF10C04E815F812C813D8148
:100FD000421753077CF4E881F9819F012F5F3F4F4F
:100FE00039832883108306C0E885F985812F099508
:100FF000892B29F72E813F812F5F3F4F3F832E831F
:10100000812F902FDF91CF911F910F910895FA01B9
:10101000AA27283051F1203181F1E8946F936E7F37
:101020006E5F7F4F8F4F9F4FAF4FB1E03ED0B4E028
:101030003CD0670F781F891F9A1FA11D680F791F69
:101040008A1F911DA11D6A0F711D811D911DA11D7A
:1010500020D009F468943F912AE0269F112430198A
:10106000305D3193DEF6CF010895462F4770405D25
:101070004193B3E00FD0C9F7F6CF462F4F70405DD4
:101080004A3318F0495D31FD4052419302D0A9F72F
:10109000EACFB4E0A6959795879577956795BA9529
:1010A000C9F700976105710508959B01AC010A2EEF
:1010B00006945795479537952795BA95C9F7620FC6
:1010C000731F841F951FA01D08952F923F924F926A
:1010D0005F926F927F928F929F92AF92BF92CF92C8
:1010E000DF92EF92FF920F931F93CF93DF93CDB7D1
:1010F000DEB7CA1BDB0B0FB6F894DEBF0FBECDBF49
:1011000009942A88398848885F846E847D848C8419
:101110009B84AA84B984C884DF80EE80FD800C8122
:101120001B81AA81B981CE0FD11D0FB6F894DEBF05
:0C1130000FBECDBFED010895F894FFCF75
:10113C000000E601200043616C6962726174696EA3
:10114C00672E2E2E20446F206E6F7420746F756383
:10115C006820746865206A6F79737469636B0063C7
:10116C006F72725F78203D2025640A00636F727283
:10117C005F79203D2025640A004C454654005249B5
:10118C0047485400555000444F574E004E45555457
:10119C0052414C0048656C6C6F20776F726C640028
:1011AC004D61696E204D656E750053657474696E82
:1011BC006773006669727374207375626D656E7502
:1011CC002069732025730A0051554954004241434C
:1011DC004B0041726520796F7520737572652079AB
:1011EC006F752077616E7420746F20717569743F10
:0E11FC0000636F6C756D6E3A2025640A00006A
:00000001FF
