S00F00004279676765726E2E7372656347
S11300000C9426010C9443010C9443010C945E015E
S11300100C9443010C9443010C9443010C9443014C
S11300200C9443010C9443010C9443010C9443013C
S11300300C9443010C9443010C9443010C9443012C
S11300400C9443010C9443010C9443010C94B101AE
S11300500C9443010C9443010C9443010C9443010C
S11300600C9443010C9443010C9443010C944301FC
S1130070000000000000005F0000000700070014FB
S11300807F147F14242A7F2A1223130864623649BA
S11300905522500005030000001C224100004122AB
S11300A01C00082A1C2A0808083E080800503000D2
S11300B00008080808080060600000201008040216
S11300C03E5149453E00427F40004261514946212C
S11300D041454B311814127F1027454545393C4A98
S11300E049493001710905033649494936064949E8
S11300F0291E00363600000056360000000814227F
S11301004114141414144122140800020151090664
S1130110324979413E7E1111117E7F494949363E6B
S1130120414141227F4141221C7F494949417F0984
S11301300901013E414151327F0808087F00417F97
S113014041002040413F017F081422417F4040404C
S1130150407F0204027F7F0408107F3E4141413EFC
S11301607F090909063E4151215E7F091929464646
S11301704949493101017F01013F4040403F1F206F
S113018040201F7F2018207F631408146303047821
S11301900403615149454300007F414102040810B2
S11301A02041417F000004020102044040404040DD
S11301B0000102040020545454787F4844443838E1
S11301C044444420384444487F3854545418087EE6
S11301D0090102081454543C7F0804047800447D47
S11301E040002040443D00007F10284400417F40EF
S11301F0007C041804787C080404783844444438A7
S11302007C14141408081414187C7C08040408488A
S113021054545420043F4440203C4040207C1C2043
S113022040201C3C4030403C44281028440C505092
S1130230503C4464544C44000836410000007F00A4
S113024000004136080002010302010011241FBE10
S1130250CFEFD4E0DEBFCDBF11E0A0E0B1E0EEEA25
S1130260FEE002C005900D92AA3DB107D9F721E046
S1130270AAEDB1E001C01D92A93EB207E1F70E94C8
S1130280D9010C9455070C94000085B7806885BF8C
S113029080B7806280BF309886B78E7F86BF8BB769
S11302A080628BBF78940895809300142899FECFC0
S11302B081E08093DE018091001408951F920F92D3
S11302C00FB60F9211241092DE010F900FBE0F9003
S11302D01F901895CF9386E091E00E942F032FE79B
S11302E084E89EE1215080409040E1F700C0000086
S11302F085E00E945401C1E82C2F281B2093DB01C8
S113030084E00E945401C81BC093DA012091DB01F0
S1130310822F992787FD90959F932F938FE291E0E9
S11303209F938F930E941B032091DA01822F9927B8
S113033087FD90959F932F938CE391E09F938F93E8
S11303400E941B038DB79EB708960FB6F8949EBF04
S11303500FBE8DBFCF9108950E9445010E946A018E
S113036008951F920F920FB60F9211242F933F936B
S11303704F935F936F937F938F939F93AF93BF93A9
S1130380EF93FF9381E08093DC018CB10E94C6025D
S1130390FF91EF91BF91AF919F918F917F916F9159
S11303A05F914F913F912F910F900FBE0F901F902F
S11303B01895CF93DF93CDB7DEB7CE55D1090FB6DD
S11303C0F894DEBF0FBECDBF8FEF8ABB8FE190E004
S11303D00E94BA026CEC72E086EC92E00E94D002B9
S11303E084E691E00E942F030E94B3020E9410024F
S11303F00E943E0280E00E94550280E00E9460025A
S11304008EE5E0E7F1E0DE01119601900D928A9508
S1130410E1F7CE0101960E948F020E94AC01FFCF4A
S1130420E0E0F0E18EEA808381EA80838AED8083D4
S113043082E1808388EC808388EA80838FE38083F1
S113044085ED808380E8808381E8808380E58083F4
S113045089ED808381E2808380E2808382E08083EF
S11304608BED808380E380838DEA8083108284EA2D
S1130470808386EA80838FEA8083089580EBA0E0FE
S1130480B0E120E1E0E0F2E191E0980F8C932C934D
S11304901C9280E010828F5F8038E1F7983B11F066
S11304A0892FF2CF1092DD01089590EB980FE0E0D0
S11304B0F0E1908390E1908310828093DD010895B0
S11304C0982F92959F70905FE0E0F0E19083982FD1
S11304D09F7090831F928F938EEC91E09F938F93E4
S11304E00E941B030F900F900F900F900895E82F18
S11304F0F0E0B097CF01880F991F880F991FE80F7C
S1130500F91FE059FF4F80E090E0A0E0B2E12491B0
S11305102C930196319685309105C9F70895FF9281
S11305200F931F93CF93DF93EC0110E000E0F12CC5
S11305300EC01F5F0F5F0E947702193140F0809157
S1130540DD018F5F8093DD010E9455021F2DFE01A6
S1130550E00FF11D80818111ECCFDF91CF911F91CC
S11305600F91FF90089585B7806885BF80B780623A
S113057080BF089590BD89B988E18AB95998F894E3
S1130580579A5F9A789481E090E008955D9BFECF3E
S11305908CB983E090E008955F9BFECF8CB1089501
S11305A00F931F93CF93DF93EC018B01009731F4EA
S11305B06115710519F480E090E038C06EE070E0D8
S11305C081E090E00E942E05FC010097A1F380E8F1
S11305D083830115110571F01387028781E88383F2
S11305E08091DF019091E001892B21F4F093E001E7
S11305F0E093DF012097C9F0D187C08783818260AF
S113060083838091E1019091E201892B71F4F0934D
S1130610E201E093E1018091E3019091E401892BEF
S113062021F4F093E401E093E301CF01DF91CF9152
S11306301F910F910895A0E0B0E0E1E2F3E00C9483
S11306402E07FE01359661917191AF018091E10110
S11306509091E2010E945C03E2E00C944A070F933C
S11306601F93CF93DF93E091E101F091E2012381A5
S113067021FF1BC0EC0100E010E089916091E101D1
S11306807091E201DB011896ED91FC911997882392
S113069031F00995892B89F30FEF1FEFEECF8AE034
S11306A00995892B11F4C80102C08FEF9FEFDF91E8
S11306B0CF911F910F910895ACE0B0E0E2E6F3E032
S11306C00C941E077C016B018A01FC0117821682BF
S11306D0838181FFBDC1CE0101964C01F701938155
S11306E0F60193FD859193FF81916F01882309F4AD
S11306F0ABC1853239F493FD859193FF81916F01EC
S1130700853229F4B70190E00E948E06E7CF512C80
S1130710312C20E02032A0F48B3269F030F48032A6
S113072059F0833269F420612CC08D3239F0803362
S113073039F4216026C02260246023C0286021C0CF
S113074027FD27C030ED380F3A3078F426FF06C075
S1130750FAE05F9E300D1124532E13C08AE0389EB8
S1130760300D1124332E20620CC08E3221F426FD6C
S11307706BC1206406C08C3611F4206802C0883630
S113078041F4F60193FD859193FF81916F018111ED
S1130790C1CF982F9F7D9554933028F40C5F1F4F41
S11307A0FFE3F9830DC0833631F0833771F083356D
S11307B009F05BC022C0F801808189830E5F1F4F5E
S11307C044244394512C540115C03801F2E06F0EB7
S11307D0711CF801A080B18026FF03C0652D70E074
S11307E002C06FEF7FEFC5012C870E9483062C01A6
S11307F083012C852F77222E17C03801F2E06F0E6B
S1130800711CF801A080B18026FF03C0652D70E043
S113081002C06FEF7FEFC5012C870E9471062C0187
S11308202C852068222E830123FC1BC0832D90E09D
S113083048165906B0F4B70180E290E00E948E0693
S11308403A94F4CFF50127FC859127FE81915F014D
S1130850B70190E00E948E0631103A94F1E04F1AED
S113086051084114510471F7E5C0843611F08936FA
S113087039F5F80127FF07C0608171818281938176
S11308800C5F1F4F08C060817181882777FD8095B8
S1130890982F0E5F1F4F2F76B22E97FF09C09095A9
S11308A08095709561957F4F8F4F9F4F2068B22E32
S11308B02AE030E0A4010E94C006A82EA81844C073
S11308C0853729F42F7EB22E2AE030E025C0F22F9E
S11308D0F97FBF2E8F36C1F018F4883579F0B4C093
S11308E0803719F0883721F0AFC02F2F2061B22E46
S11308F0B4FE0DC08B2D8460B82E09C024FF0AC03D
S11309009F2F9660B92E06C028E030E005C020E194
S113091030E002C020E132E0F801B7FE07C0608198
S11309207181828193810C5F1F4F06C06081718148
S113093080E090E00E5F1F4FA4010E94C006A82E25
S1130940A818FB2DFF77BF2EB6FE0BC02B2D2E7FD4
S1130950A51450F4B4FE0AC0B2FC08C02B2D2E7EA0
S113096005C07A2C2B2D03C07A2C01C0752C24FFD2
S11309700DC0FE01EA0DF11D8081803311F4297E42
S113098009C022FF06C07394739404C0822F867832
S113099009F0739423FD13C020FF06C05A2C73146E
S11309A018F4530C5718732C731468F4B70180E2CD
S11309B090E02C870E948E0673942C85F5CF7314D7
S11309C010F4371801C0312C24FF12C0B70180E3A2
S11309D090E02C870E948E062C8522FF17C021FFF1
S11309E003C088E590E002C088E790E0B7010CC03E
S11309F0822F867859F021FD02C080E201C08BE28B
S1130A0027FD8DE2B70190E00E948E06A51438F40C
S1130A10B70180E390E00E948E065A94F7CFAA941F
S1130A20F401EA0DF11D8081B70190E00E948E0669
S1130A30A110F5CF332009F451CEB70180E290E044
S1130A400E948E063A94F6CFF7018681978102C000
S1130A508FEF9FEF2C96E2E10C943A070F931F93CC
S1130A60CF93DF93869F8001879F100D969F100D73
S1130A701124C8010E944A05EC01009729F0A8013D
S1130A8060E070E00E947C06CE01DF91CF911F915F
S1130A900F910895CF93DF938230910510F482E093
S1130AA090E0E091E701F091E80120E030E0A0E07F
S1130AB0B0E0309739F14081518148175907B8F0B7
S1130AC04817590771F482819381109729F013967E
S1130AD09C938E9312972CC09093E8018093E70126
S1130AE027C02115310531F04217530718F0A90129
S1130AF0DB0101C0EF019A01BD01DF010280F38136
S1130B00E02DD7CF21153105F9F0281B390B2430FE
S1130B10310580F48A819B816115710521F0FB0107
S1130B209383828304C09093E8018093E701FE01DC
S1130B30329644C0FE01E20FF31F81939193225039
S1130B403109398328833AC02091E5013091E601C7
S1130B50232B41F420910201309103013093E601EB
S1130B602093E50120910001309101012115310507
S1130B7041F42DB73EB74091040150910501241B67
S1130B80350BE091E501F091E601E217F307A0F4DB
S1130B902E1B3F0B2817390778F0AC014E5F5F4FCF
S1130BA02417350748F04E0F5F1F5093E60140931A
S1130BB0E5018193919302C0E0E0F0E0CF01DF9181
S1130BC0CF910895CF93DF93009709F487C0FC0178
S1130BD0329713821282C091E701D091E8012097E5
S1130BE081F420813181280F391F8091E501909192
S1130BF0E6018217930779F5F093E601E093E501A6
S1130C006DC0DE0120E030E0AE17BF0750F412964D
S1130C104D915C9113979D014115510509F1DA013C
S1130C20F3CFB383A28340815181840F951F8A1728
S1130C309B0771F48D919C911197840F951F0296D7
S1130C409183808312968D919C91139793838283D1
S1130C502115310529F4F093E801E093E7013EC042
S1130C60D9011396FC93EE9312974D915D91A40FC5
S1130C70B51FEA17FB0779F480819181840F951FD2
S1130C800296D90111969C938E9382819381139637
S1130C909C938E931297E0E0F0E08A819B81009709
S1130CA019F0FE01EC01F9CFCE01029628813981B9
S1130CB0820F931F2091E5013091E601281739072F
S1130CC069F4309729F41092E8011092E70102C008
S1130CD013821282D093E601C093E501DF91CF9194
S1130CE00895FC010590615070400110D8F780957B
S1130CF090958E0F9F1F0895DC0101C06D934150A4
S1130D005040E0F70895FC016150704001900110DB
S1130D10D8F7809590958E0F9F1F08950F931F937A
S1130D20CF93DF93182F092FEB018B8181FD03C033
S1130D308FEF9FEF20C082FF10C04E815F812C8116
S1130D403D81421753077CF4E881F9819F012F5FAD
S1130D503F4F39832883108306C0E885F985812FA6
S1130D600995892B29F72E813F812F5F3F4F3F83C0
S1130D702E83812F902FDF91CF911F910F91089592
S1130D80FA01AA27283051F1203181F1E8946F93B8
S1130D906E7F6E5F7F4F8F4F9F4FAF4FB1E03ED05E
S1130DA0B4E03CD0670F781F891F9A1FA11D680FFC
S1130DB0791F8A1F911DA11D6A0F711D811D911D2F
S1130DC0A11D20D009F468943F912AE0269F1124A4
S1130DD03019305D3193DEF6CF010895462F477008
S1130DE0405D4193B3E00FD0C9F7F6CF462F4F7063
S1130DF0405D4A3318F0495D31FD4052419302D0C1
S1130E00A9F7EACFB4E0A695979587957795679566
S1130E10BA95C9F700976105710508959B01AC0166
S1130E200A2E06945795479537952795BA95C9F78D
S1130E30620F731F841F951FA01D08952F923F9268
S1130E404F925F926F927F928F929F92AF92BF92D6
S1130E50CF92DF92EF92FF920F931F93CF93DF9382
S1130E60CDB7DEB7CA1BDB0B0FB6F894DEBF0FBEDF
S1130E70CDBF09942A88398848885F846E847D842C
S1130E808C849B84AA84B984C884DF80EE80FD802E
S1130E900C811B81AA81B981CE0FD11D0FB6F894A4
S1110EA0DEBF0FBECDBFED010895F894FFCF65
S1130EAE0000E901200043616C6962726174696E2D
S1130EBE672E2E2E20446F206E6F7420746F756310
S1130ECE6820746865206A6F79737469636B006354
S1130EDE6F72725F78203D2025640A00636F727210
S1130EEE5F79203D2025640A004C45465400524942
S1130EFE47485400555000444F574E004E455554E4
S1130F0E52414C0048656C6C6F20776F726C6400B4
S1130F1E6865796F6F6F6F6F20776164646170209D
S1130F2E686F6D65626F696969696969696969691B
S1130F3E6969696969696969692C20696D20636FDA
S1130F4E6D696E6720666F7220796F75206D6F7490
S1130F5E6865726675636B6572206D79206E616D5E
S1130F6E65206265204A414D494521212100636F68
S10D0F7E6C756D6E3A2025640A00BC
S9030000FC
