:100000000C94B4010C94D1010C94D1010C94D30143
:100010000C94D1010C94D1010C94D1010C94D10118
:100020000C94D1010C94D1010C94D1010C94D10108
:100030000C94D1010C94D1010C94D1010C94D101F8
:100040000C94D1010C94D1010C94D1010C94DF01DA
:100050000C94D1010C94D1010C94D1010C94D101D8
:100060000C94D1010C94D1010C94D1010C94D101C8
:10007000000000000000000000065F5F06000000B6
:100080000007070007070000147F7F147F7F14001C
:10009000242E6B6B3A120000466630180C66620024
:1000A000307A4F5D377A48000407030000000000F3
:1000B000001C3E63410000000041633E1C00000044
:1000C000082A3E1C1C3E2A0808083E3E080800007C
:1000D00000A0E06000000000080808080808000010
:1000E00000006060000000006030180C0603010092
:1000F0003E7F594D7F3E000042427F7F40400000DE
:10010000627359496F660000226349497F360000D7
:10011000181C16137F7F1000276745457D390000A6
:100120003C7E4B4979300000036371190F070000D2
:10013000367F49497F360000064F49693F1E00005F
:1001400000006C6C0000000000A0EC6C00000000DF
:10015000081C366341000000141414141414000029
:10016000004163361C080000020351590F060000CD
:100170003E7F415D5D1F1E007C7E13137E7C000070
:10018000417F7F49497F36001C3E63414163220025
:10019000417F7F41637F1C00417F7F495D41630058
:1001A000417F7F491D0103001C3E63415173720072
:1001B0007F7F08087F7F000000417F7F41000000B3
:1001C000307040417F3F0100417F7F081C77630012
:1001D000417F7F41406070007F7F060C067F7F007B
:1001E0007F7F060C187F7F001C3E6341633E1C002E
:1001F000417F7F49090F06001E3F21717F5E00008D
:10020000417F7F19396F460026674D597B320000C8
:1002100003417F7F410300007F7F40407F7F0000DC
:100220001F3F60603F1F00007F7F3018307F7F00DE
:1002300063771C081C776300074F78784F0700002E
:100240006773594D47637100007F7F414100000093
:100250000103060C183060000041417F7F00000060
:10026000080C0603060C0800808080808080808057
:100270000000030704000000207454543C78400040
:10028000413F7F44447C3800387C44446C28000063
:10029000307848493F7F4000387C54545C18000057
:1002A000487E7F490302000098BCA4A4F87C0400A7
:1002B000417F7F08047C780000447D7D4000000081
:1002C00040C484FD7D000000417F7F10386C4400F5
:1002D00000417F7F400000007C7C0C180C7C780083
:1002E0007C7C04047C780000387C44447C3800002A
:1002F00084FCF8A4243C1800183C24A4F8FC8400D6
:10030000447C78441C180000485C54547424000059
:1003100000043E7F442400003C7C40403C7C400084
:100320001C3C60603C1C00003C7C6030607C3C00FD
:10033000446C3810386C44009CBCA0A0FC7C0000CD
:100340004C64745C4C64000008083E774141000036
:1003500000000077770000004141773E0808000068
:10036000020301030203010011241FBECFEFD4E0FA
:10037000DEBFCDBF11E0A0E0B1E0E4E9F8E002C0EB
:1003800005900D92A231B107D9F721E0A2E1B1E0C9
:1003900001C01D92AE31B207E1F70E9407020C9432
:1003A00048040C9400001F920F920FB60F92112474
:1003B000109213010F900FBE0F901F9018951F926F
:1003C0000F920FB60F9211242F933F934F935F9389
:1003D0006F937F938F939F93AF93BF93EF93FF930D
:1003E00081E0809312018CB10E947C02FF91EF9119
:1003F000BF91AF919F918F917F916F915F914F913D
:100400003F912F910F900FBE0F901F9018958FEF77
:100410008ABB8FE190E00E94700262E872E08CE794
:1004200092E00E94860286E091E00E94D1020E9442
:1004300069020E941E020E944C02FFCFE0E0F0E140
:100440008EEA808381EA80838AED808382E18083E3
:1004500088EC808388EA80838FE3808385ED8083C6
:1004600080E8808381E8808380E5808389ED8083D4
:1004700081E2808380E2808382E080838BED8083D1
:1004800080E380838DEA8083108284EA808386EA19
:1004900080838FEA808308952FE986E891E02150D8
:1004A00080409040E1F700C00000E0E0F0E180EB28
:1004B000808380E180831082E0E1F2E088E192E0D5
:1004C000A0E0B2E124912C933196E817F907D1F717
:1004D000FFCF85B7806885BF80B7806280BF0895F1
:1004E00090BD89B988E18AB95998F894579A5F9A6A
:1004F000789481E090E008955D9BFECF8CB983E015
:1005000090E008955F9BFECF8CB108950F931F93E9
:10051000CF93DF93EC018B01009731F461157105E6
:1005200019F480E090E038C06EE070E081E090E087
:100530000E94FE02FC010097A1F380E8838301156D
:10054000110571F01387028781E88383809114017C
:1005500090911501892B21F4F0931501E09314017A
:100560002097C9F0D187C08783818260838380917F
:10057000160190911701892B71F4F0931701E09304
:1005800016018091180190911901892B21F4F093A3
:100590001901E0931801CF01DF91CF911F910F91C5
:1005A00008950F931F93CF93DF93E0911601F0917D
:1005B0001701238121FF1BC0EC0100E010E08991AD
:1005C0006091160170911701DB011896ED91FC9175
:1005D0001997882331F00995892B89F30FEF1FEFC5
:1005E000EECF8AE00995892B11F4C80102C08FEF84
:1005F0009FEFDF91CF911F910F9108950F931F935C
:10060000CF93DF93869F8001879F100D969F100DDB
:100610001124C8010E941A03EC01009729F0A801D7
:1006200060E070E00E944104CE01DF91CF911F9104
:100630000F910895CF93DF938230910510F482E0FB
:1006400090E0E0911C01F0911D0120E030E0A0E07D
:10065000B0E0309739F14081518148175907B8F01F
:100660004817590771F482819381109729F01396E6
:100670009C938E9312972CC090931D0180931C0124
:1006800027C02115310531F04217530718F0A90191
:10069000DB0101C0EF019A01BD01DF010280F3819E
:1006A000E02DD7CF21153105F9F0281B390B243067
:1006B000310580F48A819B816115710521F0FB0170
:1006C0009383828304C090931D0180931C01FE01DB
:1006D000329644C0FE01E20FF31F819391932250A2
:1006E0003109398328833AC020911A0130911B01C6
:1006F000232B41F4209102013091030130931B011F
:1007000020931A012091000130910101211531053A
:1007100041F42DB73EB74091040150910501241BCF
:10072000350BE0911A01F0911B01E217F307A0F4D9
:100730002E1B3F0B2817390778F0AC014E5F5F4F37
:100740002417350748F04E0F5F1F50931B0140934D
:100750001A018193919302C0E0E0F0E0CF01DF91B4
:10076000CF910895CF93DF93009709F487C0FC01E0
:10077000329713821282C0911C01D0911D012097E3
:1007800081F420813181280F391F80911A019091C5
:100790001B018217930779F5F0931B01E0931A016F
:1007A0006DC0DE0120E030E0AE17BF0750F41296B6
:1007B0004D915C9113979D014115510509F1DA01A5
:1007C000F3CFB383A28340815181840F951F8A1791
:1007D0009B0771F48D919C911197840F951F029640
:1007E0009183808312968D919C911397938382833A
:1007F0002115310529F4F0931D01E0931C013EC041
:10080000D9011396FC93EE9312974D915D91A40F2D
:10081000B51FEA17FB0779F480819181840F951F3A
:100820000296D90111969C938E938281938113969F
:100830009C938E931297E0E0F0E08A819B81009771
:1008400019F0FE01EC01F9CFCE0102962881398121
:10085000820F931F20911A0130911B01281739072D
:1008600069F4309729F410921D0110921C0102C006
:1008700013821282D0931B01C0931A01DF91CF9192
:100880000895DC0101C06D9341505040E0F7089598
:04089000F894FFCF0A
:1008940000001E01200048656C6C6F20776F726C3D
:0208A4006400EE
:00000001FF
