:100000000C9438000C9455000C9455000C94570037
:100010000C9455000C9455000C9455000C9455000C
:100020000C9455000C9455000C9455000C945500FC
:100030000C9455000C9455000C9455000C945500EC
:100040000C9455000C9455000C9455000C946300CE
:100050000C9455000C9455000C9455000C945500CC
:100060000C9455000C9455000C9455000C945500BC
:1000700011241FBECFEFD4E0DEBFCDBF11E0A0E062
:10008000B1E0E4EAF5E002C005900D92A231B107BB
:10009000D9F721E0A2E1B1E001C01D92AE31B20773
:1000A000E1F70E948B000C94D0020C9400001F9288
:1000B0000F920FB60F921124109213010F900FBEE2
:1000C0000F901F9018951F920F920FB60F92112448
:1000D0002F933F934F935F936F937F938F939F9350
:1000E000AF93BF93EF93FF9381E0809312018CB1A4
:1000F0000E940401FF91EF91BF91AF919F918F9169
:100100007F916F915F914F913F912F910F900FBE13
:100110000F901F9018958FEF8ABB8FE190E00E949F
:10012000F8006AE071E084E091E00E940E0186E050
:1001300091E00E9459010E94F1000E94A2000E94D9
:10014000D000FFCFE0E0F0E18EEA808381EA808397
:100150008AED808382E1808388EC808388EA8083D3
:100160008FE3808385ED808380E8808381E88083CE
:1001700080E5808389ED808381E2808380E28083D3
:1001800082E080838BED808380E380838DEA8083AF
:10019000108284EA808386EA80838FEA80830895D0
:1001A0002FE986E891E0215080409040E1F700C0BF
:1001B000000080EBA0E0B0E120E1E0E0F2E191E0BE
:1001C000980F8C932C931C9280E01082C3ECD9E0A2
:1001D0002197F1F700C000008F5F8038B1F7892FB9
:1001E000EECF85B7806885BF80B7806280BF0895F5
:1001F00090BD89B988E18AB95998F894579A5F9A5D
:10020000789481E090E008955D9BFECF8CB983E007
:1002100090E008955F9BFECF8CB108950F931F93DC
:10022000CF93DF93EC018B01009731F461157105D9
:1002300019F480E090E038C06EE070E081E090E07A
:100240000E948601FC010097A1F380E883830115D9
:10025000110571F01387028781E88383809114016F
:1002600090911501892B21F4F0931501E09314016D
:100270002097C9F0D187C087838182608383809172
:10028000160190911701892B71F4F0931701E093F7
:1002900016018091180190911901892B21F4F09396
:1002A0001901E0931801CF01DF91CF911F910F91B8
:1002B00008950F931F93CF93DF93E0911601F09170
:1002C0001701238121FF1BC0EC0100E010E08991A0
:1002D0006091160170911701DB011896ED91FC9168
:1002E0001997882331F00995892B89F30FEF1FEFB8
:1002F000EECF8AE00995892B11F4C80102C08FEF77
:100300009FEFDF91CF911F910F9108950F931F934E
:10031000CF93DF93869F8001879F100D969F100DCE
:100320001124C8010E94A201EC01009729F0A80144
:1003300060E070E00E94C902CE01DF91CF911F9171
:100340000F910895CF93DF938230910510F482E0EE
:1003500090E0E0911C01F0911D0120E030E0A0E070
:10036000B0E0309739F14081518148175907B8F012
:100370004817590771F482819381109729F01396D9
:100380009C938E9312972CC090931D0180931C0117
:1003900027C02115310531F04217530718F0A90184
:1003A000DB0101C0EF019A01BD01DF010280F38191
:1003B000E02DD7CF21153105F9F0281B390B24305A
:1003C000310580F48A819B816115710521F0FB0163
:1003D0009383828304C090931D0180931C01FE01CE
:1003E000329644C0FE01E20FF31F81939193225095
:1003F0003109398328833AC020911A0130911B01B9
:10040000232B41F4209102013091030130931B0111
:1004100020931A012091000130910101211531052D
:1004200041F42DB73EB74091040150910501241BC2
:10043000350BE0911A01F0911B01E217F307A0F4CC
:100440002E1B3F0B2817390778F0AC014E5F5F4F2A
:100450002417350748F04E0F5F1F50931B01409340
:100460001A018193919302C0E0E0F0E0CF01DF91A7
:10047000CF910895CF93DF93009709F487C0FC01D3
:10048000329713821282C0911C01D0911D012097D6
:1004900081F420813181280F391F80911A019091B8
:1004A0001B018217930779F5F0931B01E0931A0162
:1004B0006DC0DE0120E030E0AE17BF0750F41296A9
:1004C0004D915C9113979D014115510509F1DA0198
:1004D000F3CFB383A28340815181840F951F8A1784
:1004E0009B0771F48D919C911197840F951F029633
:1004F0009183808312968D919C911397938382832D
:100500002115310529F4F0931D01E0931C013EC033
:10051000D9011396FC93EE9312974D915D91A40F20
:10052000B51FEA17FB0779F480819181840F951F2D
:100530000296D90111969C938E9382819381139692
:100540009C938E931297E0E0F0E08A819B81009764
:1005500019F0FE01EC01F9CFCE0102962881398114
:10056000820F931F20911A0130911B012817390720
:1005700069F4309729F410921D0110921C0102C0F9
:1005800013821282D0931B01C0931A01DF91CF9185
:100590000895DC0101C06D9341505040E0F708958B
:0405A000F894FFCFFD
:1005A40000001E01200048656C6C6F20776F726C30
:0205B4006400E1
:00000001FF
