:100000000C9438000C9455000C9455000C94550039
:100010000C9455000C9455000C9455000C9455000C
:100020000C9455000C9455000C9455000C945500FC
:100030000C9455000C9455000C9455000C945500EC
:100040000C9455000C9455000C9455000C945700DA
:100050000C9455000C9455000C9455000C945500CC
:100060000C9455000C9455000C9455000C945500BC
:1000700011241FBECFEFD4E0DEBFCDBF11E0A0E062
:10008000B1E0ECEFF4E002C005900D92A231B107AF
:10009000D9F721E0A2E1B1E001C01D92AD31B20774
:1000A000E1F70E947F000C947C020C9400001F92E8
:1000B0000F920FB60F9211242F933F934F935F939C
:1000C0006F937F938F939F93AF93BF93EF93FF9320
:1000D00081E0809312018CB10E94B000FF91EF91FA
:1000E000BF91AF919F918F917F916F915F914F9150
:1000F0003F912F910F900FBE0F901F9018958FEF8B
:100100008ABB8FE190E00E94A40066EB70E080EB78
:1001100090E00E94BA0086E091E00E9405012FEF76
:100120008FE797E0215080409040E1F700C0000049
:10013000D9982FEF8FE797E0215080409040E1F76A
:1001400000C00000D99AEBCF90BD89B988E18AB987
:100150005998F894579A5F9A789481E090E00895BE
:100160005D9BFECF8CB983E090E008955F9BFECF4E
:100170008CB108950F931F93CF93DF93EC018B0104
:10018000009731F46115710519F480E090E038C0F2
:100190006EE070E081E090E00E943201FC01009787
:1001A000A1F380E883830115110571F0138702879D
:1001B00081E883838091130190911401892B21F4AC
:1001C000F0931401E09313012097C9F0D187C08701
:1001D0008381826083838091150190911601892B20
:1001E00071F4F0931601E09315018091170190913D
:1001F0001801892B21F4F0931801E0931701CF0126
:10020000DF91CF911F910F9108950F931F93CF937B
:10021000DF93E0911501F0911601238121FF1BC0AE
:10022000EC0100E010E089916091150170911601D8
:10023000DB011896ED91FC911997882331F009950F
:10024000892B89F30FEF1FEFEECF8AE00995892BF9
:1002500011F4C80102C08FEF9FEFDF91CF911F9182
:100260000F9108950F931F93CF93DF93869F800183
:10027000879F100D969F100D1124C8010E944E01FA
:10028000EC01009729F0A80160E070E00E9475027F
:10029000CE01DF91CF911F910F910895CF93DF93FE
:1002A0008230910510F482E090E0E0911B01F09122
:1002B0001C0120E030E0A0E0B0E0309739F140814F
:1002C000518148175907B8F04817590771F48281CE
:1002D0009381109729F013969C938E9312972CC0BC
:1002E00090931C0180931B0127C02115310531F02B
:1002F0004217530718F0A901DB0101C0EF019A0171
:10030000BD01DF010280F381E02DD7CF211531053A
:10031000F9F0281B390B2430310580F48A819B8148
:100320006115710521F0FB019383828304C09093D2
:100330001C0180931B01FE01329644C0FE01E20FB6
:10034000F31F8193919322503109398328833AC056
:100350002091190130911A01232B41F420910201BF
:100360003091030130931A0120931901209100016B
:10037000309101012115310541F42DB73EB740916F
:10038000040150910501241B350BE0911901F091F6
:100390001A01E217F307A0F42E1B3F0B28173907A9
:1003A00078F0AC014E5F5F4F2417350748F04E0FD1
:1003B0005F1F50931A01409319018193919302C0DA
:1003C000E0E0F0E0CF01DF91CF910895CF93DF938C
:1003D000009709F487C0FC01329713821282C09102
:1003E0001B01D0911C01209781F420813181280FBD
:1003F000391F8091190190911A018217930779F59D
:10040000F0931A01E09319016DC0DE0120E030E0A5
:10041000AE17BF0750F412964D915C9113979D0152
:100420004115510509F1DA01F3CFB383A28340816D
:100430005181840F951F8A179B0771F48D919C91B0
:100440001197840F951F02969183808312968D9148
:100450009C911397938382832115310529F4F0939E
:100460001C01E0931B013EC0D9011396FC93EE934F
:1004700012974D915D91A40FB51FEA17FB0779F410
:1004800080819181840F951F0296D90111969C93CA
:100490008E938281938113969C938E931297E0E0C2
:1004A000F0E08A819B81009719F0FE01EC01F9CF01
:1004B000CE01029628813981820F931F2091190164
:1004C00030911A012817390769F4309729F41092EE
:1004D0001C0110921B0102C013821282D0931A01D8
:1004E000C0931901DF91CF910895DC0101C06D9394
:0C04F00041505040E0F70895F894FFCF11
:1004FC0000001D01200048656C6C6F20776F726CDA
:02050C00640089
:00000001FF
