S00F00004279676765726E2E7372656347
S11300000C9438000C9455000C9455000C94570033
S11300100C9455000C9455000C9455000C94550008
S11300200C9455000C9455000C9455000C945500F8
S11300300C9455000C9455000C9455000C945500E8
S11300400C9455000C9455000C9455000C94EA0043
S11300500C9455000C9455000C9455000C945500C8
S11300600C9455000C9455000C9455000C945500B8
S113007011241FBECFEFD4E0DEBFCDBF11E0A0E05E
S1130080B1E0E8E1F6E002C005900D92AE32B107AE
S1130090D9F721E0AEE2B1E001C01D92AB33B20763
S11300A0E1F70E9412010C940A030C9400001F92C1
S11300B00F920FB60F921124109230010F900FBEC1
S11300C00F901F901895E0E0F0E18EEA808381EABA
S11300D080838AED808382E1808388EC808388EA50
S11300E080838FE3808385ED808380E8808381E84B
S11300F0808380E5808389ED808381E2808380E250
S1130100808382E080838BED808380E380838DEA2B
S11301108083108284EA808386EA80838FEA8083E6
S1130120089590EB980FE0E0F0E1908390E19083E4
S1130130108280932E01089580EBA0E0B0E120E1CD
S1130140E0E0F2E191E0980F8C932C931C9280E014
S113015010828F5F8038E1F7983B11F0892FF2CF3E
S113016010922E0180E00E94910086E091E00E94AE
S1130170BA020895982F92959F70905FE0E0F0E1A5
S113018090838F70808308956D986E9A6C9A689AA4
S1130190699808951FB88FB1089585B7806885BFA1
S11301A080B7806280BF089590BD89B988E18AB91B
S11301B05998F894579A5F9A789481E090E008955A
S11301C05D9BFECF8CB983E090E008955F9BFECFEA
S11301D08CB108951F920F920FB60F9211242F9392
S11301E03F934F935F936F937F938F939F93AF93BB
S11301F0BF93EF93FF9381E080932F018CB10E9412
S1130200E000FF91EF91BF91AF919F918F917F910A
S11302106F915F914F913F912F910F900FBE0F906F
S11302201F9018958FEF9FE20197F1F700C000002F
S11302308FEF8ABB8FE190E00E94D40066EE70E0FD
S113024080EE90E00E946F020E94CD000E94630045
S11302500E949C0080E00E94910080E00E94BA000D
S11302600E94C40085E191E00E94BA029FEF2FE74B
S113027081E0915020408040E1F700C000C085E556
S113028090E00E94CA0081E291E00E94BA02EECF9F
S1130290CF93DF938230910510F482E090E0E091F7
S11302A03301F091340120E030E0A0E0B0E0309779
S11302B039F14081518148175907B8F04817590757
S11302C071F482819381109729F013969C938E93F5
S11302D012972CC0909334018093330127C02115C9
S11302E0310531F04217530718F0A901DB0101C0B1
S11302F0EF019A01BD01DF010280F381E02DD7CF28
S113030021153105F9F0281B390B2430310580F40F
S11303108A819B816115710521F0FB01938382839E
S113032004C09093340180933301FE01329644C09B
S1130330FE01E20FF31F8193919322503109398317
S113034028833AC02091310130913201232B41F4AA
S11303502091020130910301309332012093310145
S113036020910001309101012115310541F42DB78F
S11303703EB74091040150910501241B350BE091D7
S11303803101F0913201E217F307A0F42E1B3F0B69
S11303902817390778F0AC014E5F5F4F24173507F3
S11303A048F04E0F5F1F5093320140933101819307
S11303B0919302C0E0E0F0E0CF01DF91CF91089586
S11303C0CF93DF93009709F487C0FC01329713821F
S11303D01282C0913301D0913401209781F420819D
S11303E03181280F391F8091310190913201821798
S11303F0930779F5F0933201E09331016DC0DE018A
S113040020E030E0AE17BF0750F412964D915C9196
S113041013979D014115510509F1DA01F3CFB38317
S1130420A28340815181840F951F8A179B0771F421
S11304308D919C911197840F951F029691838083CF
S113044012968D919C911397938382832115310584
S113045029F4F0933401E09333013EC0D90113969B
S1130460FC93EE9312974D915D91A40FB51FEA177B
S1130470FB0779F480819181840F951F0296D9013D
S113048011969C938E938281938113969C938E9361
S11304901297E0E0F0E08A819B81009719F0FE0159
S11304A0EC01F9CFCE01029628813981820F931F86
S11304B020913101309132012817390769F43097BE
S11304C029F4109234011092330102C01382128273
S11304D0D0933201C0933101DF91CF9108950F93EE
S11304E01F93CF93DF93EC018B01009731F46115D7
S11304F0710519F480E090E038C06EE070E081E0AE
S113050090E00E94E702FC010097A1F380E8838356
S11305100115110571F01387028781E883838091A7
S1130520350190913601892B21F4F0933601E09343
S113053035012097C9F0D187C08783818260838386
S11305408091370190913801892B71F4F09338012F
S1130550E09337018091390190913A01892B21F47C
S1130560F0933A01E0933901CF01DF91CF911F91CC
S11305700F9108950F931F93CF93DF93E091370169
S1130580F0913801238121FF1BC0EC0100E010E051
S113059089916091370170913801DB011896ED91D2
S11305A0FC911997882331F00995892B89F30FEF72
S11305B01FEFEECF8AE00995892B11F4C80102C020
S11305C08FEF9FEFDF91CF911F910F9108950F93BC
S11305D01F93CF93DF93869F8001879F100D969F73
S11305E0100D1124C8010E944801EC01009729F064
S11305F0A80160E070E00E940303CE01DF91CF9177
S11306001F910F910895DC0101C06D93415050403A
S10B0610E0F70895F894FFCF10
S113061800003B012000446F6E6520636C656172C5
S1130628696E670D004574746572204F4C4544200B
S111063800486572206572206A656720000024
S9030000FC
