:100000000C9426010C9443010C9443010C945E0162
:100010000C9443010C9443010C9443010C94430150
:100020000C9443010C9443010C9443010C94430140
:100030000C9443010C9443010C9443010C94430130
:100040000C9443010C9443010C9443010C941D0245
:100050000C9443010C9443010C9443010C94430110
:100060000C9443010C9443010C9443010C94430100
:10007000000000000000005F0000000700070014FF
:100080007F147F14242A7F2A1223130864623649BE
:100090005522500005030000001C224100004122AF
:1000A0001C00082A1C2A0808083E080800503000D6
:1000B000000808080808006060000020100804021A
:1000C0003E5149453E00427F400042615149462130
:1000D00041454B311814127F1027454545393C4A9C
:1000E00049493001710905033649494936064949EC
:1000F000291E003636000000563600000008142283
:100100004114141414144122140800020151090668
:10011000324979413E7E1111117E7F494949363E6F
:10012000414141227F4141221C7F494949417F0988
:100130000901013E414151327F0808087F00417F9B
:1001400041002040413F017F081422417F40404050
:10015000407F0204027F7F0408107F3E4141413E00
:100160007F090909063E4151215E7F09192946464A
:100170004949493101017F01013F4040403F1F2073
:1001800040201F7F2018207F631408146303047825
:100190000403615149454300007F414102040810B6
:1001A0002041417F000004020102044040404040E1
:1001B000000102040020545454787F4844443838E5
:1001C00044444420384444487F3854545418087EEA
:1001D000090102081454543C7F0804047800447D4B
:1001E00040002040443D00007F10284400417F40F3
:1001F000007C041804787C080404783844444438AB
:100200007C14141408081414187C7C08040408488E
:1002100054545420043F4440203C4040207C1C2047
:1002200040201C3C4030403C44281028440C505096
:10023000503C4464544C44000836410000007F00A8
:100240000000413608000C1224120C0011241FBEBD
:10025000CFEFD4E0DEBFCDBF11E0A0E0B1E0E4EC31
:10026000FBE102C005900D92A037B107D9F721E05C
:10027000A0E7B1E001C01D92A439B207E1F70E94E6
:1002800045020C94E00D0C94000085B7806885BF92
:1002900080B7806280BF309886B78E7F86BF8BB76D
:1002A00080628BBF78940895809300142899FECFC4
:1002B00081E0809389018091001408951F920F922C
:1002C0000FB60F921124109289010F900FBE0F905C
:1002D0001F901895CF9385E00E945401C1E89C2F90
:1002E000981B9093710184E00E945401C81BC09335
:1002F0007001CF9108950E9445010E946A010895FE
:10030000CF93DF9385E00E945401682F70E080E076
:1003100090E00E94AA072CE033E949E45FE30E94E1
:100320000E080E947707C0917101DD27C7FDD095A7
:100330006C0F7D1FEB01C456D10984E00E9454016B
:10034000682F70E080E090E00E94AA072CE033E97B
:1003500049E45FE30E940E080E9477072091700134
:10036000332727FD3095260F371FBE01C90184565C
:100370009109DF91CF9108958F929F92AF92BF9292
:10038000CF92DF92EF92FF920F931F93CF93DF9361
:100390000E9480016B017C01EB018701CB01B70159
:1003A0000E949908882777FD8095982F0E94AA07B8
:1003B0004B015C01C6014996C39720F4C7014996D9
:1003C000C39728F11C161D0634F4C501B4010E9420
:1003D000C1080297F4F4DD2334F4C501B4010E948E
:1003E000C1080297C4F4101611063CF4C501B4010B
:1003F0000E94C1081816190684F411233CF4C501A3
:10040000B4010E94C108181619064CF409C084E012
:1004100007C081E005C080E003C082E001C083E046
:10042000DF91CF911F910F91FF90EF90DF90CF90D0
:10043000BF90AF909F908F9008951F920F920FB62C
:100440000F9211242F933F934F935F936F937F935A
:100450008F939F93AF93BF93EF93FF9381E080932C
:1004600087018CB10E946D07FF91EF91BF91AF9111
:100470009F918F917F916F915F914F913F912F91BC
:100480000F900FBE0F901F901895CF93DF93CDB7AD
:10049000DEB729970FB6F894DEBF0FBECDBF8FEF42
:1004A0008ABB8FE190E00E94610763E777E08DE609
:1004B00097E00E944C0A0E945A070E9466050E941B
:1004C0009F0580E00E94940580E00E94B9058BE0C2
:1004D00091E090937F0180937E01109282011092AF
:1004E00081011092800110928601109285018DE2A7
:1004F00090E00E94C70890938401809383014EE7A7
:1005000051E060E070E085E191E00E9477044EE701
:1005100051E060E070E08EE191E00E9477047C01A0
:100520004EE751E060E070E084E291E00E947704E1
:100530006C01A70160E070E089E291E00E9477041D
:100540008C01A70160E070E086E391E00E947704EF
:10055000A70160E070E08AE391E00E947704A601C1
:1005600060E070E082E491E00E947704A80160E01E
:1005700070E086E491E00E94770489E0EEE7F1E024
:10058000A5E7B1E001900D928A95E1F7E12C009189
:100590007E0110917F012091800130918101409175
:1005A0008201509183016091840170918501809155
:1005B00086010E941E048091720190917301892B23
:1005C00009F039C10F2EF9E0FF2EF02D0F2EF9E7BB
:1005D0004F2EF1E05F2EF02D0F2EF2E52F2EF1E0E1
:1005E0003F2EF02D0F2EFCE56F2EF1E07F2EF02D2B
:1005F0006894CC24C2F80F2EFCE78F2EF1E09F2EDA
:10060000F02DAA24A394B12CDD24D3940E94BC0124
:1006100090917401292F30E0220F331FE0917A016D
:10062000F0917B01E20FF31F0190F081E02DDE01DC
:1006300011962F2D01900D922A95E1F7823071F0DD
:1006400038F4882309F4B4C0813009F479C0ECC0CF
:10065000833069F1843009F4DFC0E6C09923E9F002
:1006600080910A018430C9F4EE24EA94E90EE09204
:1006700074010091750110917601209177013091FC
:1006800078014091790150917A0160917B017091DC
:100690007C0180917D010E941E0482E080930A010A
:1006A000A7EAB1E61197F1F700C00000BDC0F20162
:1006B00080811F928F933F922F920E94970A4091C0
:1006C0007401242F30E0D2018C9190E001970F90BB
:1006D0000F900F900F902817390744F580910A0169
:1006E000843021F581E0840F809374011F928F93F1
:1006F0007F926F920E94970AE090740100917501B9
:100700001091760120917701309178014091790123
:1007100050917A0160917B0170917C0180917D0103
:100720000E941E040F900F900F900F90B3E0B093B3
:100730000A01E7EAF1E63197F1F700C0000074C062
:1007400080910A01843059F509811A812B813C81FD
:100750004D815E816F81788589850E94EC04FE0160
:100760003196A5E7B1E08F2D01900D928A95E1F7C2
:1007700010927401E12C0091750110917601209185
:100780007701309178014091790150917A0160911F
:100790007B0170917C0180917D010E941E04D092AA
:1007A0000A0187EA91E60197F1F700C000003CC01A
:1007B00080910A01843039F500917501109176011C
:1007C00020917701309178014091790150917A011F
:1007D00060917B0170917C0180917D010E942F05C9
:1007E000D401ED91FC91309741F0A5E7B1E08F2D58
:1007F00001900D928A95E1F704C0B0927301A09226
:1008000072011092740110920A01E7EAF1E6319741
:10081000F1F700C0000008C0C0920A0187EA91E623
:100820000197F1F700C0000080917201909173016F
:10083000892B09F4EBCE0E947B01FFCFBF92CF92B0
:10084000DF92EF92FF920F931F93CF93DF93CDB779
:10085000DEB729970FB6F894DEBF0FBECDBF098370
:100860001A832B833C83F42E4D835E836F837887BA
:1008700089870E811F810E949F0589819A810E942C
:10088000450681E00E949405FF2009F1CE2CD12C71
:10089000CC0CDD1CC00ED11EB12CBE1008C0D60180
:1008A000ED91FC91808191810E94860607C0D8015C
:1008B000ED91FC91808191810E940D0682E08B0D6B
:1008C0000E949405B3940E5F1F4FBF10E6CF299688
:1008D0000FB6F894DEBF0FBECDBFDF91CF911F9151
:1008E0000F91FF90EF90DF90CF90BF900895CF923F
:1008F000DF92EF92FF920F931F93CF93DF937C01D0
:100900008B01EA01CC80D12CCC0CDD1C8D819E8129
:10091000C80ED91E8DE290E00E94C708F6019183AF
:100920008083EC81F0E0EE0FFF1F8D819E81E80F48
:10093000F91F0190F081E02DF182E082EC81F0E07E
:10094000EE0FFF1F8D819E81E80FF91F0190F0814E
:10095000E02D1482EC81F0E0EE0FFF1F8D819E816F
:10096000E80FF91F0190F081E02D13830283EC81E1
:10097000F0E0EE0FFF1F8D819E81E80FF91F0190BF
:10098000F081E02DD087C783EC81F0E0EE0FFF1FF0
:100990008D819E81E80FF91F008111818DE290E029
:1009A0000E94C708F80196838583EC81EF5FEC8392
:1009B000F0E0E150F048EE0FFF1F8D819E81E80FBF
:1009C000F91F80819181DF91CF911F910F91FF904D
:1009D000EF90DF90CF900895EF920F931F93CF93F6
:1009E000DF93CDB7DEB729970FB6F894DEBF0FBE01
:1009F000CDBF09831A832B833C834D835E836F8332
:100A000078878987EB81FC812FE38DE093E021508B
:100A100080409040E1F700C00000309799F4EE81EB
:100A2000FF8180819181892B71F0E12C09811A81EC
:100A30002B813C814D815E816F81788589850E9403
:100A40001E0401C0099529960FB6F894DEBF0FBEAB
:100A5000CDBFDF91CF911F910F91EF900895EF924D
:100A60000F931F93CF93DF93CDB7DEB729970FB6C0
:100A7000F894DEBF0FBECDBF09831A832B833C835E
:100A80004D835E836F8378878987E885F985309702
:100A900069F0E12C008111812281338144815581EB
:100AA0006681778180850E941E0404C00E949F0594
:100AB0000E94C70629960FB6F894DEBF0FBECDBFC1
:100AC000DF91CF911F910F91EF900895E0E0F0E159
:100AD0008EEA808381EA80838AED808382E180834D
:100AE00088EC808388EA80838FE3808385ED808330
:100AF00080E8808381E8808380E5808389ED80833E
:100B000081E2808380E2808382E080838BED80833A
:100B100080E380838DEA8083108284EA808386EA82
:100B200080838FEA8083089590EB980FE0E0F0E1F6
:100B3000908390E19083108280938801089580EBE8
:100B4000A0E0B0E120E1E0E0F2E191E0980F8C93C9
:100B50002C931C9280E010828F5F8038E1F7983BE5
:100B600011F0892FF2CF1092880180E00E94940545
:100B70000895982F92959F70905FE0E0F0E1908348
:100B80008F7080830895E82FF0E0B097CF01880F31
:100B9000991F880F991FE80FF91FE059FF4F80E058
:100BA00090E0A0E0B2E124912C930196319685303B
:100BB0009105C9F70895E82FF0E0E054F109CF015D
:100BC000880F991F880F991FE80FF91FE059FF4FF1
:100BD00080E090E0A0E0B2E124912C930196319660
:100BE00085309105C9F70895E82FF0E0B097CF015F
:100BF000880F991F880F991FE80FF91FE059FF4FC1
:100C000080E090E0A0E0B2E1249120952C93019641
:100C1000319685309105C1F70895FF920F931F9388
:100C2000CF93DF93EC01FC0101900020E9F73197AD
:100C3000E81BF90BCF01880F991F880F991FE80F48
:100C4000F91FF695E79580E48E1B0E94B90510E028
:100C500000E0F12C0EC01F5F0F5F0E94C305193129
:100C600040F0809188018F5F809388010E949405F5
:100C70001F2DFE01E00FF11D80818111ECCFDF916E
:100C8000CF911F910F91FF900895FF920F931F93A3
:100C9000CF93DF93EC01FC0101900020E9F731973D
:100CA000E81BF90BCF01880F991F880F991FE80FD8
:100CB000F91FF695E79580E48E1B0E94B90501E0C7
:100CC00010E0F12C15C01F5F9FE9980F9A3118F4BE
:100CD0000E94DB0502C00E94C305193140F08091DB
:100CE00088018F5F809388010E9494051F2D0F5FFC
:100CF0008FEF800FFE01E80FF11D80818111E3CF9E
:100D0000DF91CF911F910F91FF900895FF920F9364
:100D10001F93CF93DF93EC0180E0E0E0F2E19FEFDF
:100D200090838F5F8038E1F7FE0101900020E9F7A2
:100D30003197EC1BFD0B9F01220F331F220F331F36
:100D4000E20FF31F9F013695279580E4821B0E94D6
:100D5000B90510E000E0F12C0EC01F5F0F5F0E948C
:100D6000F405193140F0809188018F5F80938801EC
:100D70000E9494051F2DFE01E00FF11D808181115D
:100D8000ECCFDF91CF911F910F91FF90089582E0FA
:100D90000E94940582E30E94B9058DE2E0E0F2E151
:100DA00090EC90838150E9F786E00E94940582E3FD
:100DB0000E94B9058DE2E0E0F2E193E0908381507A
:100DC000E9F713E0C0E0D2E10FEF812F0E94940514
:100DD00082E30E94B905088308831F5F1630A9F7D4
:100DE00083E00E9494058FE50E94B905C0E0D2E13E
:100DF00013E0188306E008830F2EFCE0FF2EF02D91
:100E0000F8820F2EF8E1EF2EF02DE8820F2EF0E39E
:100E1000DF2EF02DD8820F2EF0E6CF2EF02DC882D7
:100E20000F2EF0ECBF2EF02DB88280E8888384E08E
:100E30000E94940586E60E94B90581E8888383ECC8
:100E4000888386E688838CE3888385E00E94940506
:100E50008FE50E94B905B882C882D882E882F882FC
:100E60000883188381E088830F2EF3E0EF2EF02DA6
:100E70000F2EF3E0DF2EF02D0FEF10E010C08E2DBF
:100E80000E9494050F2EF2E3FF2EF02D0E943C0AE3
:100E9000B8010E9499088883FA94C1F7E39485E029
:100EA0008E1568F78FE493EC0197F1F700C000000E
:100EB000ED2CF5CF85B7806885BF80B7806280BF95
:100EC000089590BD89B988E18AB95998F894579ADC
:100ED0005F9A789481E090E008955D9BFECF8CB995
:100EE00083E090E008955F9BFECF8CB1089504D01D
:100EF0006894B1118DC0089570D088F09F5790F01C
:100F0000B92F9927B751A0F0D1F0660F771F881F2E
:100F1000991F1AF0BA95C9F712C0B13081F077D095
:100F2000B1E0089574C0672F782F8827B85F39F033
:100F3000B93FCCF3869577956795B395D9F73EF48D
:100F400090958095709561957F4F8F4F9F4F089535
:100F5000E89409C097FB3EF4909580957095619553
:100F60007F4F8F4F9F4F9923A9F0F92F96E9BB2709
:100F70009395F695879577956795B795F111F8CF85
:100F8000FAF4BB0F11F460FF1BC06F5F7F4F8F4FF0
:100F90009F4F16C0882311F096E911C0772321F0E6
:100FA0009EE8872F762F05C0662371F096E8862F7E
:100FB00070E060E02AF09A95660F771F881FDAF7D5
:100FC000880F9695879597F9089557FD9058440F87
:100FD000551F59F05F3F71F04795880F97FB991F98
:100FE00061F09F3F79F08795089512161306140655
:100FF000551FF2CF4695F1DF08C0161617061806E2
:10100000991FF1CF86957105610508940895E894BC
:10101000BB2766277727CB0197F908950BD078C0B7
:1010200069D028F06ED018F0952309F05AC05FC03F
:101030001124EECFCADFA0F3959FD1F3950F50E0B6
:10104000551F629FF001729FBB27F00DB11D639F7A
:10105000AA27F00DB11DAA1F649F6627B00DA11D20
:10106000661F829F2227B00DA11D621F739FB00DC6
:10107000A11D621F839FA00D611D221F749F332736
:10108000A00D611D231F849F600D211D822F762FCF
:101090006A2F11249F5750408AF0E1F088234AF0CC
:1010A000EE0FFF1FBB1F661F771F881F9150504018
:1010B000A9F79E3F510570F014C0AACF5F3FECF333
:1010C000983EDCF3869577956795B795F795E79504
:1010D0009F5FC1F7FE2B880F911D9695879597F915
:1010E000089597F99F6780E870E060E008959FEFAA
:1010F00080EC089500240A941616170618060906AF
:10110000089500240A94121613061406050608957D
:10111000092E0394000C11F4882352F0BB0F40F405
:10112000BF2B11F460FF04C06F5F7F4F8F4F9F4F45
:10113000089597FB072E16F4009407D077FD09D089
:101140000E94AD0807FC05D03EF4909581959F4F15
:101150000895709561957F4F0895AA1BBB1B51E1BF
:1011600007C0AA1FBB1FA617B70710F0A61BB70B17
:10117000881F991F5A95A9F780959095BC01CD01BC
:10118000089597FF03C09195819591090895CF9394
:10119000DF938230910510F482E090E0E0918C01C1
:1011A000F0918D0120E030E0A0E0B0E0309739F11F
:1011B0004081518148175907B8F04817590771F411
:1011C00082819381109729F013969C938E931297A6
:1011D0002CC090938D0180938C0127C0211531057F
:1011E00031F04217530718F0A901DB0101C0EF01EC
:1011F0009A01BD01DF010280F381E02DD7CF2115D7
:101200003105F9F0281B390B2430310580F48A812F
:101210009B816115710521F0FB019383828304C0DA
:1012200090938D0180938C01FE01329644C0FE01A3
:10123000E20FF31F81939193225031093983288360
:101240003AC020918A0130918B01232B41F42091E7
:1012500002013091030130938B0120938A01209188
:101260000001309101012115310541F42DB73EB740
:101270004091040150910501241B350BE0918A0136
:10128000F0918B01E217F307A0F42E1B3F0B2817F8
:10129000390778F0AC014E5F5F4F2417350748F0EF
:1012A0004E0F5F1F50938B0140938A01819391935E
:1012B00002C0E0E0F0E0CF01DF91CF910895CF933D
:1012C000DF93009709F487C0FC01329713821282E2
:1012D000C0918C01D0918D01209781F420813181C2
:1012E000280F391F80918A0190918B0182179307F3
:1012F00079F5F0938B01E0938A016DC0DE0120E067
:1013000030E0AE17BF0750F412964D915C911397E1
:101310009D014115510509F1DA01F3CFB383A28391
:1013200040815181840F951F8A179B0771F48D911D
:101330009C911197840F951F02969183808312963A
:101340008D919C911397938382832115310529F404
:10135000F0938D01E0938C013EC0D9011396FC936C
:10136000EE9312974D915D91A40FB51FEA17FB07FD
:1013700079F480819181840F951F0296D90111968D
:101380009C938E938281938113969C938E93129754
:10139000E0E0F0E08A819B81009719F0FE01EC010A
:1013A000F9CFCE01029628813981820F931F2091B7
:1013B0008A0130918B012817390769F4309729F495
:1013C00010928D0110928C0102C013821282D09370
:1013D0008B01C0938A01DF91CF9108958F929F92E4
:1013E000AF92BF92CF92DF92EF92FF92CF93DF93B3
:1013F000EC01688179818A819B8161157105810584
:10140000910521F464E279ED8BE597E02DE133EF6E
:1014100041E050E00E94460D49015A019B01AC0198
:10142000A7EAB1E40E94650D6B017C01ACEEB4EF5C
:10143000A50194010E94730DC60ED71EE81EF91E69
:10144000F7FE06C081E0C81AD108E10880E8F80A72
:10145000C882D982EA82FB82C6019F77DF91CF9151
:10146000FF90EF90DF90CF90BF90AF909F908F90C4
:1014700008950E94EE09089586E091E00E94EE0929
:101480000895A0E0B0E08093060190930701A09337
:101490000801B093090108950F931F93CF93DF9331
:1014A000EC018B01009731F46115710519F480E0AE
:1014B00090E038C06EE070E081E090E00E947D0C2A
:1014C000FC010097A1F380E883830115110571F0F9
:1014D0001387028781E8838380918E0190918F0129
:1014E000892B21F4F0938F01E0938E012097C9F0AE
:1014F000D187C0878381826083838091900190919E
:101500009101892B71F4F0939101E0939001809106
:10151000920190919301892B21F4F0939301E09330
:101520009201CF01DF91CF911F910F910895A0E01B
:10153000B0E0EDE9FAE00C94880DFE01359661917A
:101540007191AF0180919001909191010E94AB0A3D
:10155000E2E00C94A40DACE0B0E0E1EBFAE00C9416
:10156000780D7C016B018A01FC0117821682838150
:1015700081FFBDC1CE0101964C01F7019381F601B7
:1015800093FD859193FF81916F01882309F4ABC18D
:10159000853239F493FD859193FF81916F018532F6
:1015A00029F4B70190E00E94B60CE7CF512C312C02
:1015B00020E02032A0F48B3269F030F4803259F010
:1015C000833269F420612CC08D3239F0803339F4D4
:1015D000216026C02260246023C0286021C027FD2E
:1015E00027C030ED380F3A3078F426FF06C0FAE015
:1015F0005F9E300D1124532E13C08AE0389E300DAB
:101600001124332E20620CC08E3221F426FD6BC1D2
:10161000206406C08C3611F4206802C0883641F47C
:10162000F60193FD859193FF81916F018111C1CFE7
:10163000982F9F7D9554933028F40C5F1F4FFFE344
:10164000F9830DC0833631F0833771F0833509F0AB
:101650005BC022C0F801808189830E5F1F4F442444
:101660004394512C540115C03801F2E06F0E711CE7
:10167000F801A080B18026FF03C0652D70E002C094
:101680006FEF7FEFC5012C870E94AB0C2C0183010B
:101690002C852F77222E17C03801F2E06F0E711CB7
:1016A000F801A080B18026FF03C0652D70E002C064
:1016B0006FEF7FEFC5012C870E94990C2C012C85C0
:1016C0002068222E830123FC1BC0832D90E0481646
:1016D0005906B0F4B70180E290E00E94B60C3A944B
:1016E000F4CFF50127FC859127FE81915F01B701B9
:1016F00090E00E94B60C31103A94F1E04F1A510874
:101700004114510471F7E5C0843611F0893639F57A
:10171000F80127FF07C060817181828193810C5F8E
:101720001F4F08C060817181882777FD8095982FB1
:101730000E5F1F4F2F76B22E97FF09C090958095B0
:10174000709561957F4F8F4F9F4F2068B22E2AE092
:1017500030E0A4010E94E80CA82EA81844C08537E8
:1017600029F42F7EB22E2AE030E025C0F22FF97F37
:10177000BF2E8F36C1F018F4883579F0B4C08037A9
:1017800019F0883721F0AFC02F2F2061B22EB4FEA0
:101790000DC08B2D8460B82E09C024FF0AC09F2F76
:1017A0009660B92E06C028E030E005C020E130E0A8
:1017B00002C020E132E0F801B7FE07C0608171810C
:1017C000828193810C5F1F4F06C06081718180E030
:1017D00090E00E5F1F4FA4010E94E80CA82EA818ED
:1017E000FB2DFF77BF2EB6FE0BC02B2D2E7FA51431
:1017F00050F4B4FE0AC0B2FC08C02B2D2E7E05C0EA
:101800007A2C2B2D03C07A2C01C0752C24FF0DC01F
:10181000FE01EA0DF11D8081803311F4297E09C09B
:1018200022FF06C07394739404C0822F867809F057
:10183000739423FD13C020FF06C05A2C731418F4B0
:10184000530C5718732C731468F4B70180E290E0BE
:101850002C870E94B60C73942C85F5CF731410F46A
:10186000371801C0312C24FF12C0B70180E390E08B
:101870002C870E94B60C2C8522FF17C021FF03C0C5
:1018800088E590E002C088E790E0B7010CC0822FA5
:10189000867859F021FD02C080E201C08BE227FD6D
:1018A0008DE2B70190E00E94B60CA51438F4B701A0
:1018B00080E390E00E94B60C5A94F7CFAA94F4010A
:1018C000EA0DF11D8081B70190E00E94B60CA110D5
:1018D000F5CF332009F451CEB70180E290E00E94A9
:1018E000B60C3A94F6CFF7018681978102C08FEF4C
:1018F0009FEF2C96E2E10C94940D0F931F93CF93DE
:10190000DF93869F8001879F100D969F100D1124F5
:10191000C8010E94C708EC01009729F0A80160E007
:1019200070E00E94A40CCE01DF91CF911F910F9126
:101930000895FC010590615070400110D8F7809522
:1019400090958E0F9F1F0895DC0101C06D9341504B
:101950005040E0F70895FC01615070400190011083
:10196000D8F7809590958E0F9F1F08950F931F9322
:10197000CF93DF93182F092FEB018B8181FD03C0DB
:101980008FEF9FEF20C082FF10C04E815F812C81BE
:101990003D81421753077CF4E881F9819F012F5F55
:1019A0003F4F39832883108306C0E885F985812F4E
:1019B0000995892B29F72E813F812F5F3F4F3F8368
:1019C0002E83812F902FDF91CF911F910F9108953A
:1019D000FA01AA27283051F1203181F1E8946F9360
:1019E0006E7F6E5F7F4F8F4F9F4FAF4FB1E03ED006
:1019F000B4E03CD0670F781F891F9A1FA11D680FA4
:101A0000791F8A1F911DA11D6A0F711D811D911DD6
:101A1000A11D20D009F468943F912AE0269F11244B
:101A20003019305D3193DEF6CF010895462F4770AF
:101A3000405D4193B3E00FD0C9F7F6CF462F4F700A
:101A4000405D4A3318F0495D31FD4052419302D068
:101A5000A9F7EACFB4E0A69597958795779567950E
:101A6000BA95C9F700976105710508959B01AC010E
:101A70000A2E06945795479537952795BA95C9F735
:101A8000620F731F841F951FA01D0895052E97FBDD
:101A90001EF400940E945D0D57FD07D00E94AF0D0B
:101AA00007FC03D04EF40C945D0D50954095309595
:101AB00021953F4F4F4F5F4F0895909580957095BA
:101AC00061957F4F8F4F9F4F08950E94D10DA59F25
:101AD000900DB49F900DA49F800D911D1124089529
:101AE000B7FF0C94650D0E94650D821B930B089542
:101AF0002F923F924F925F926F927F928F929F921E
:101B0000AF92BF92CF92DF92EF92FF920F931F930B
:101B1000CF93DF93CDB7DEB7CA1BDB0B0FB6F894BC
:101B2000DEBF0FBECDBF09942A88398848885F84FC
:101B30006E847D848C849B84AA84B984C884DF806D
:101B4000EE80FD800C811B81AA81B981CE0FD11D51
:101B50000FB6F894DEBF0FBECDBFED010895A1E230
:101B60001A2EAA1BBB1BFD010DC0AA1FBB1FEE1F17
:101B7000FF1FA217B307E407F50720F0A21BB30B62
:101B8000E40BF50B661F771F881F991F1A9469F7DE
:101B900060957095809590959B01AC01BD01CF013A
:101BA0000895A29FB001B39FC001A39F700D811D36
:101BB0001124911DB29F700D811D1124911D089556
:041BC000F894FFCFC7
:101BC40000009401200001000000044D61696E20B2
:101BD4004D656E750053657474696E677300546F58
:101BE4006E6A61004B61726C004C696C6C612067B9
:101BF400656E736572006F6364005265676E62752B
:101C040065004B756C0053766172742062756B735A
:101C140065006D656E75732025640A0063757272C4
:101C2400656E74206C696E65203D2025640A000091
:00000001FF
